:020000041000EA
:1000000000B5324B212058609868022188439860DF
:10001000D860186158612E4B002199600221596106
:100020000121F02299502B49196001219960352056
:1000300000F044F80222904214D00621196600F024
:1000400034F8196E01211966002018661A6600F04E
:100050002CF8196E196E196E052000F02FF8012189
:100060000842F9D1002199601B49196000215960AB
:100070001A491B48016001219960EB211966A021F2
:10008000196600F012F800219960164914480160C1
:100090000121996001BC002800D000471248134993
:1000A000086003C880F30888084703B5996A0420EC
:1000B0000142FBD001200142F8D103BD02B5186610
:1000C0001866FFF7F2FF186E186E02BD00000240BE
:1000D000000000180000070000035F00212200005C
:1000E000F4000018222000A00001001008ED00E03C
:1000F00000000000000000000000000074B24E7A12
:1001000000200420F7010010C3010010C5010010F9
:10011000C1010010C1010010C1010010C101001097
:10012000C1010010C1010010C1010010C701001081
:10013000C1010010C1010010C9010010CB01001065
:10014000CD010010CD010010CD010010CD01001037
:10015000CD010010CD010010CD010010CD01001027
:10016000CD010010CD010010CD010010CD01001017
:10017000CD010010CD010010CD010010CD01001007
:10018000CD010010CD010010CD010010CD010010F7
:10019000CD010010CD010010CD010010CD010010E7
:1001A000CD010010CD010010CD010010CD010010D7
:1001B000CD010010CD010010CD010010CD010010C7
:1001C00000BE00BE00BE00BE00BE00BE00F04BF888
:1001D000103800BEF2EB887190260710B426071085
:1001E0003402001090A31AE700202149086006C8D5
:1001F00081F3088810471F48006800282FD10DA4FC
:100200000ECC002902D000F012F8F9E71A491B4A77
:10021000002000E001C19142FCD1194988471949E9
:1002200088471949884700BEFDE701C901C29A42C3
:10023000FBD37047B4260710C0000020581C0020D4
:100240004C42071000000420000004204C4207101C
:1002500000100420001004200000000070470B482C
:1002600013F042F90047EFF30580C0B27047000079
:1002700008ED00E0000000D0581C0020044D0220D2
:10028000C519011079050010CD1A0110575600004C
:1002900006005250ABB36053F8E10610060052500E
:1002A000861C030208E20610060052505422A29D4A
:1002B00020E2061005005250DE65F4684C4207103B
:1002C000F8B5C04610B5064C2378002B07D1054B76
:1002D000002B02D0044800E000BF0123237010BDB2
:1002E000601D00200000000080140210044B10B5B7
:1002F000002B03D00349044800E000BF10BDC046F6
:1003000000000000641D00208014021030B583B08E
:100310000D00140013000A000D4900F075FD01AA3C
:100320000023019355331370663353709570D47066
:100330000021032909D8074B9B699B06FBD4107841
:10034000044B186001310132F3E703B030BDC04601
:100350008014021000400340F0B5D6464F46464692
:10036000C0B584B081460E00170098460C9D03ABC3
:10037000754A1A80754B1B78002B12D0744C636839
:100380009847A3689847002841D1714BDB6898478C
:10039000002842D16E4B1B69022098476B4B00220C
:1003A0001A700CF055FE00283DD00CF055FE0400EC
:1003B000280017F093FB0CF04FFE041B654B9C428A
:1003C00036DD0CF045FEFA21890013F0B9F8010082
:1003D000200013F0B5F8009023005F4A5F494846BB
:1003E00000F012FD0CF034FE00282ED00CF034FE8C
:1003F0008246002203A9012A2CD8594B9C69A306E6
:10040000FBD40878564B186001320131F3E75549A7
:10041000484600F0F9FC01208FE05349484600F0BF
:10042000F3FC012089E05149484600F0EDFCBCE7AF
:1004300063011B1B9B001B19DB009A460CF008FE96
:100440000100504613F07CF8C5E74849484600F0E3
:10045000DBFCCBE70CF000FE5346C41A3D4B9C423C
:1004600027DD0CF0F5FDFA21890013F069F8010091
:10047000200013F065F8009023003D4A37494846B4
:1004800000F0C2FC0CF0E4FD00281FD00CF0E4FDED
:1004900082462A000023902189018B421BD2304CD6
:1004A000A469A106FBD410782D49086001330132FC
:1004B000F1E763011B1B9B001B19DB009A460CF044
:1004C000C7FD0100504613F03BF8D4E727494846E2
:1004D00000F09AFCDAE70CF0BFFD5346C41A1D4B3E
:1004E0009C421CDD0CF0B4FDFA21890013F028F8C1
:1004F0000100200013F024F8009023001D4A174942
:10050000484600F081FC00233A00724341464A43CA
:100510009A4211DDEA5C803AEA540133F4E7630160
:100520001B1B9B001B19DB009A460CF091FD010080
:10053000504613F005F8DFE7002004B0E0BCBA46EF
:10054000B146A846F0BDC04655AAFFFFF0120020F4
:10055000D41300209BC42000F014021010150210C8
:1005600000400340A4140210B8140210D01402106A
:100570002C1502105415021010B500F0E9F900F026
:100580001FF9FCE70023036043608360704710B5E8
:1005900003685B69984710BD10B503689B6998476D
:1005A00010BD000030B583B008E06B46D879224B0F
:1005B0009B692022110019401A4214D01E4B9B69DE
:1005C00010210A001A40194234D16B46D91D002A65
:1005D000EBD1194B9B69DB06FBD4174B1B680B70E7
:1005E00001320131F3E7154B00229B5E834203D0B9
:1005F0006B46DA1D10701AE06B46DA1D0D2313707E
:100600000C0004E015780C4B1D6001340132002C05
:10061000EED1094B9B699B06FBD4F3E7064B9B6924
:100620009B06FBD41078044B18600131013200297D
:10063000F4D0C3E703B030BD00400340F44C0220C7
:10064000024B034A1A60034A1A607047F4120020F2
:10065000F8D00610D4160210034B044A1A60044A5C
:100660001A60044A1A607047B43D02202C17021029
:1006700004170210E816021010B5040020290CD04F
:100680000022A423E358934209D95301E318181D0B
:100690009B698B4204D00132F3E7002000E0002088
:1006A00010BD0000034B0360034B0360034B03606A
:1006B0007047C0462C17021004170210E8160210EB
:1006C000034B0360034B0360034B03607047C0465A
:1006D0002C17021004170210E816021010B5024879
:1006E0000BF03DFE10BDC046803E022010B5C42375
:1006F000C458052C01D8002302E01EF015FF013379
:100700009C4208D9C218A83212788A42F7D12C33F9
:100710009B00185800E0002010BDF8B505000E0041
:10072000002400E00134A423EB58A3420ED9630156
:10073000EB181F1D9B69202BF4D16301EB18D869BE
:1007400031001FF04DFF0028ECD100E000273800F9
:10075000F8BD000070B5E121154C0903200010F030
:1007600079F8022100200FF05BFF022101200FF039
:1007700057FFE26A602353406E221A4080256D01C4
:100780000C4B2B431A60E26A102632401A600A4969
:10079000142011F04DFC0121142011F031FCA6634E
:1007A000626B38231340054A15432B6070BDC04669
:1007B000004003402C400340A50500103440034096
:1007C00030B583B00CF044FC00285DD00CF044FC44
:1007D0000400464B1868464B1B681B6900930123B5
:1007E00060226021FFF7B8FD002853D10CF034FCE3
:1007F000041B404B9C4253DD0CF02AFCFA2189007B
:1008000012F09EFE0100200012F09AFE0300374A0B
:10081000106800932300384A384900F0F5FA0CF0CC
:1008200017FC002849D00CF017FC0400344B186862
:100830000CF088F9002846D10CF00EFC041B2D4B5F
:100840009C4246DD0CF004FCFA21890012F078FE8F
:100850000100200012F074FE0300244D286800936C
:100860002300284A254900F0CFFA254B18680021BB
:100870000BF0F4FE03690121595600229A562868AC
:10088000FFF744FD03B030BD184B18681E4900F057
:10089000BBFA9BE7154B18681C4900F0B5FAA5E7B1
:1008A00065012D1BAD002D19ED000CF0D1FB0100F1
:1008B000280012F045FE0300A9E70C4B1868124906
:1008C00000F0A2FAAFE7094B1868114900F09CFA52
:1008D000B2E765012D1BAD002D19ED000CF0B8FB42
:1008E0000100280012F02CFE0300B6E7A81D00202E
:1008F000AC1D00209BC42000B01502101015021082
:10090000941D0020CC150210D0140210981502106E
:10091000BC150210704710B50068FFF7FBFF10BD53
:10092000704710B50068FFF7FBFF10BD704710B5AA
:100930000088FFF7FBFF10BD10B504000068FFF74B
:10094000E9FF201810BD10B5FFF7F6FF10BD00003D
:10095000F0B58DB0FFF7FEFEB74B1B78BFF35B8F92
:10096000DB0722D5B54BB64A1A60B648FFF7EBFF56
:100970000400B54B1860FFF7D4FF251A2800FFF7D5
:10098000D6FF04281DD9281DFFF7D1FF00281AD053
:100990002018FFF7C0FF0200032A16D00323AB493B
:1009A000A74800F031FA0DB0F0BDA34817F0CAF81F
:1009B0000028D7D0A04817F0E1F8A5481EF0BCFDEC
:1009C000D0E70020E2E70022E6E7A24B1B78BFF366
:1009D0005B8FDB0713D504A806F0DAFB9E4803689B
:1009E0005B6901219847002823D09B4AC823D0582F
:1009F000002840D00122994900F006FA3BE09548D2
:100A000017F0A0F80028E6D0934B954A1A60954A53
:100A10001A60954A1A600022A4215A5020315A5077
:100A200004315A508B4817F0A9F890481EF084FD05
:100A3000D1E7894AA423D158042930D886484C01EB
:100A40000419251D04AB2A00E0CBE0C2E0CBE0C2D4
:100A500060CB60C20125A5610131A423C150C4212E
:100A60004358C218A83215701A002C329200804CDC
:100A700014500133435004A802F022F8764803686A
:100A80005B6903219847002813D0734AC823D058C4
:100A9000002830D00322714900F0B6F92BE024334E
:100AA000D0580028E7D0C33B0122724900F0ACF9CE
:100AB000E1E7694AA423D158042930D866484C019B
:100AC0000419251D04AB2A00E0CBE0C2E0CBE0C254
:100AD00060CB60C20325A5610131A423C150C421AC
:100AE0004358C218A83215701A002C329200624C7A
:100AF00014500133435004A803F044FF56480368E0
:100B00005B6904219847002813D0534AC823D05862
:100B1000002833D00422514900F076F92EE0243326
:100B2000D0580028E7D0C33B0322524900F06CF9AB
:100B3000E1E7494AA423D158042933D846484C0157
:100B400004239C460419251D04AB2A00E0CBE0C217
:100B5000E0CBE0C260CB60C26346A3610131A03349
:100B6000C150C4214358C218A832644614701A00F8
:100B70002C329200414C14500133435004A809F028
:100B800011FB354803685B6916219847002813D08C
:100B9000314AC823D058002830D016222F4900F0FF
:100BA00033F92BE02433D0580028E7D0C33B04228C
:100BB000304900F029F9E1E7274AA423D158042954
:100BC00030D825484C010419251D04AB2A00E0CB80
:100BD000E0C2E0CBE0C260CB60C21625A561013166
:100BE000A423C150C4214358C218A83215701A005A
:100BF0002C329200224C14500133435004A807F0C9
:100C00004DFA154803685B6919219847002839D0C7
:100C1000114AC823D058002856D019220F4900F095
:100C2000F3F851E02433D0580028E7D0C33B162214
:100C3000104900F0E9F8E1E7841D0020A81D00201C
:100C4000F412002050170210B01D0020D41502101D
:100C5000410600107C1D0020B43D02201C1602102D
:100C6000E8160210041702102C1702105906001083
:100C7000691500106C1602105913001011110010A4
:100C8000B90F0010304AA423D158042931D82E4876
:100C90004C010419251D04AB2A00E0CBE0C2E0CBD7
:100CA000E0C260CB60C21925A5610131A423C15007
:100CB000C4214358C218A83215701A002C32920071
:100CC000224C145001334350214B1B78BFF35B8FF0
:100CD000DB0718D51F48204B18600BF04DFE00288D
:100CE0002CD11D4B186800210BF0FAFB1B4B186030
:100CF00059E62433D0580028E6D0C33B19221849BE
:100D000000F082F8E0E7124816F01CFF0028E1D05E
:100D1000144B196800230293134B1B68019388231B
:100D20009B020093114B084A0A480BF0ABFB0848A2
:100D300016F024FF0E481EF0FFFBCBE70A4B1868A5
:100D40000C4900F061F82EE6B43D02208517001032
:100D5000801D0020803E0220941D0020AC1D00203C
:100D60006C160210B01D0020A81D0020B41D00202C
:100D7000DD060010B0160210013080007047000040
:100D80000D281DD88000104B1B589F460F487047F8
:100D90000F48FCE70F48FAE70F48F8E70F48F6E777
:100DA0000F48F4E70F48F2E70F48F0E70F48EEE787
:100DB0000F48ECE70F48EAE70F48E8E70F48E6E797
:100DC0000F48E4E70F48E2E7F0AD0610E8AD061083
:100DD00080AD061088AD061090AD061098AD0610D7
:100DE000A0AD0610A8AD0610B0AD0610B8AD061047
:100DF000C4AD0610D0AD0610D8AD0610E0AD06109B
:100E000068AD061078AD06100EB400B582B003AA26
:100E100002CA019203689B68984702B008BC03B0FD
:100E200018470CB400B583B004AA02CA0192036843
:100E30009B68984703B008BC02B01847052803D840
:100E40008300024AD3589F460020704728AE061000
:100E5000002803D0012803D1013070470120FCE7AE
:100E60000020FAE710B5002806D0002906D0002A95
:100E700006D0002B06D010BD1EF056FB1EF054FB12
:100E80001EF052FB1EF050FB10B513000C2836D894
:100E900083001F4AD3589F460A230B70002010BDC1
:100EA00001230B70FBE70B230B700020F7E70723F0
:100EB0000B700020F3E702230B700020EFE7032301
:100EC0000B700020EBE709230B700020E7E70423F9
:100ED0000B700020E3E70D230B700020DFE70523F4
:100EE0000B700020DBE706230B700020D7E70823F8
:100EF0000B700020D3E70C230B700020CFE70022FB
:100F00000A70020003491800FFF77EFF0120C6E7C0
:100F100064AE061040AE0610F0B5C64600B582B00D
:100F200004000D001700019300291AD00868FFF78C
:100F3000F1FC0600A008B0421AD30024B44225D226
:100F4000A3009846B8442868FFF7E4FC844216D210
:100F50002B1DA2009858FFF7E3FC434618600134AC
:100F6000ECE7089A0C491800FFF74EFF01200EE04D
:100F7000089A0A490198FFF747FF012007E08321FB
:100F8000074B084A4900084810F0A4FD002002B0B1
:100F900080BCB846F0BDC04698AE0610C8AE06107C
:100FA0000CAF061018AF0610E8AF0610704710B56A
:100FB0000078FFF7FBFF10BDF0B5C64600B584B062
:100FC00004000F0015001E00FFF74CFF2B681B6884
:100FD000042224212800984780462422002113F06F
:100FE00089FC0295434603934546002B0ED0200012
:100FF000FFF797FC231A98461800FFF798FC0A2879
:1010000011D940460A30FFF792FC0DE0384B0193AE
:10101000B723DB000093374B374A39003800FFF71E
:1010200000FF013551E00020002803D02018FFF711
:10103000BEFF00E00020112819D12000FFF771FC4D
:10104000231A98461800FFF772FC0C2804D9404672
:101050000C30FFF76CFC00E000202418002804D0BE
:101060002000FFF758FC241802E0002400E00024D0
:10107000002C25D0A0462000FFF753FC241A2000A6
:10108000FFF755FC04282ED9201DFFF750FC4346DE
:101090001C18002829D02000FFF73DFC2418002C44
:1010A0000ED0164B00933B002A0021002020FFF7B2
:1010B00033FF051E09D12068FFF72CFC039B186243
:1010C000039B33600023039300250399002903D079
:1010D000029803685B68984700230393280004B0D4
:1010E00080BCB846F0BD0020D1E70024D7E7C04659
:1010F00080B006102CB0061068B0061094B0061030
:10110000704710B5007840B2FFF7FAFF10BD00003D
:10111000F0B5C64600B584B00400884615001E0030
:10112000FFF7A0FE2B681B6804221C2128009847AB
:1011300007001C22002113F0DDFB02950397002F0E
:101140000DD02000FFF7EDFB251A2800FFF7EFFB7D
:101150000A2810D928000A30FFF7E9FB0CE07A4B87
:1011600001937A4B00937A4B7A4A41464046FFF707
:1011700058FE0124BDE00020002803D02018FFF70E
:1011800016FF00E00020022818D12000FFF7C9FB5D
:10119000251A2800FFF7CBFB0C2804D928000C30B7
:1011A000FFF7C5FB00E000202418002804D0200031
:1011B000FFF7B1FB241802E0002400E00024002C1B
:1011C00000D191E025002000FFF7ABFB241A20009E
:1011D000FFF7ADFB042800D899E0201DFFF7A7FB1F
:1011E000002800D195E02818FFF78BFFC0B2FFF769
:1011F0002FFE3870039F2800FFF793FB2C1A200066
:10120000FFF795FB062800D885E0A01DFFF78FFBB0
:10121000002800D181E02818FFF783FB7860039C49
:101220002800FFF77EFB2F1A3800FFF780FB082805
:1012300000D874E038000830FFF779FB002800D1AF
:101240006FE02818FFF76DFBA0602800FFF769FB2F
:101250002F1A3800FFF76BFB0A2864D938000A30D0
:10126000FFF765FB002860D02818FFF75AFBE06005
:101270002800FFF756FB2F1A3800FFF758FB0C2801
:1012800055D938000C30FFF752FB002851D02818F0
:10129000FFF737FFC0B2FFF7D1FD20742800FFF73A
:1012A00040FB2F1A3800FFF742FB0E2843D93800C5
:1012B0000E30FFF73CFB00283FD02818FFF731FB2A
:1012C00060612800FFF72DFB2F1A3800FFF72FFB76
:1012D000102834D938001030FFF729FB002830D00F
:1012E0002818FFF71EFBA061039B336000230393C4
:1012F00000240399002903D0029803685B6898478B
:1013000000230393200004B080BCB846F0BD002049
:1013100066E700206AE700207AE700207EE70020E9
:101320008CE7002090E700209CE700209FE700204A
:10133000ABE70020AEE70020BDE70120C0E70020BA
:10134000CCE70120CFE7C04680B0061023040000A0
:101350002CB0061068B00610F0B5C64600B584B0D3
:101360000400884615001E00FFF77CFD2B681B68F3
:10137000042218212800984707001822002113F0A2
:10138000B9FA02950397002F0DD02000FFF7C9FA94
:10139000251A2800FFF7CBFA0A2810D928000A30AE
:1013A000FFF7C5FA0CE06C4B01936C4B00936C4B50
:1013B0006C4A41464046FFF734FD0124A6E0002078
:1013C000002803D02018FFF7F2FD00E000200128DC
:1013D00018D12000FFF7A5FA251A2800FFF7A7FA71
:1013E0000C2804D928000C30FFF7A1FA00E00020F7
:1013F0002418002804D02000FFF78DFA241802E0FA
:10140000002400E00024002C7BD025002000FFF702
:1014100088FA241A2000FFF78AFA042800D883E00B
:10142000201DFFF784FA002800D17FE02818FFF77D
:1014300068FEC0B2FFF70CFD3870039F2800FFF76D
:1014400070FA2C1A2000FFF772FA062800D86FE015
:10145000A01DFFF76CFA00286CD02818FFF761FA7E
:101460007860039F2800FFF75CFA2C1A2000FFF732
:101470005EFA082860D920000830FFF758FA0028E3
:101480005CD02818FFF74DFAB8602800FFF749FA3A
:101490002C1A2000FFF74BFA0A2851D920000A30F5
:1014A000FFF745FA00284DD02818FFF72AFEC0B2F2
:1014B000FFF7C4FC38732800FFF733FA2C1A20001A
:1014C000FFF735FA0C283FD920000C30FFF72FFA30
:1014D00000283BD02818FFF724FA38612800FFF7CE
:1014E00020FA2C1A2000FFF722FA0E2830D920000B
:1014F0000E30FFF71CFA00282CD02818FFF711FA3D
:101500007861039B3360002303930024039900292F
:1015100003D0029803685B68984700230393200078
:1015200004B080BCB846F0BD00207CE7002080E716
:10153000002090E7002093E70020A0E70020A3E729
:101540000020AFE70020B2E70020C1E70120C4E798
:101550000020D0E70120D3E780B00610F903000097
:101560002CB0061068B00610F0B5C64600B584B0C1
:101570000400884615001E00FFF774FC2B681B68EA
:10158000042228212800984707002822002113F070
:10159000B1F902950397002F0DD02000FFF7C1F994
:1015A000251A2800FFF7C3F90A2810D928000A30A5
:1015B000FFF7BDF90CE06C4B01936C4B00936C4B47
:1015C0006C4A41464046FFF72CFC0124A6E000206F
:1015D000002803D02018FFF7EAFC00E000200528CF
:1015E00018D12000FFF79DF9251A2800FFF79FF971
:1015F0000C2804D928000C30FFF799F900E00020EE
:101600002418002804D02000FFF785F9241802E0F0
:10161000002400E00024002C7BD025002000FFF7F0
:1016200080F9241A2000FFF782F9042800D883E00B
:10163000201DFFF77CF9002800D17FE02818FFF774
:1016400060FDC0B2FFF704FC3870039F2800FFF76D
:1016500068F92C1A2000FFF76AF9062800D86FE015
:10166000A01DFFF764F900286CD02818FFF759F97E
:101670007860039F2800FFF754F92C1A2000FFF729
:1016800056F9082860D920000830FFF750F90028E3
:101690005CD02818FFF745F9B8602800FFF741F93A
:1016A0002C1A2000FFF743F90A2851D920000A30EC
:1016B000FFF73DF900284DD02818FFF732F9F86000
:1016C0002800FFF72EF92C1A2000FFF730F90C281C
:1016D00042D920000C30FFF72AF900283ED0281804
:1016E000FFF71FF938612800FFF71BF92C1A2000BB
:1016F000FFF71DF90E2833D920000E30FFF717F938
:1017000000282FD02818FFF7FCFCC0B2FFF796FB8B
:101710003875039B33600023039300240399002949
:1017200003D0029803685B68984700230393200066
:1017300004B080BCB846F0BD00207CE7002080E704
:10174000002090E7002093E70020A0E70020A3E717
:101750000020AFE70020B2E70020BEE70020C1E78D
:101760000020CDE70020D0E780B006105E05000025
:101770002CB0061068B00610704710B50068FFF76F
:10178000FBFF10BDF0B5C64600B584B00400884626
:1017900015001E00FFF766FB2B681B68042204215E
:1017A000280098470023036002950390071E0DD080
:1017B0002000FFF7B6F8251A2800FFF7B8F80A2826
:1017C00010D928000A30FFF7B2F80CE02D4B019336
:1017D0002D4B00932D4B2E4A41464046FFF721FBEF
:1017E00001243DE00020002803D02018FFF7DFFB94
:1017F00000E00020092818D12000FFF792F8251AF0
:101800002800FFF794F80C2804D928000C30FFF7C3
:101810008EF800E000202418002804D02000FFF7F4
:101820007AF8241802E0002400E00024002C12D0F2
:1018300025002000FFF775F8241A2000FFF777F83D
:1018400004281BD9201DFFF772F8002818D028188B
:10185000FFF793FF3860039B33600023039300245A
:101860000399002903D0029803685B689847002316
:101870000393200004B080BCB846F0BD0020E4E72C
:101880000020E7E780B00610410600002CB00610EB
:1018900068B00610F0B5CE4600B582B004000D0069
:1018A00001921F0000233B600BF0A7FC0090060094
:1018B0002000FFF736F8231A99461800FFF737F88B
:1018C000082804D948460830FFF731F800E0002026
:1018D000002804D02018FFF724F8814601E00123F6
:1018E0009946832E0FD8202E1FD02B681B684A469E
:1018F000009928009847386000280BD0002002B0DB
:1019000080BCB946F0BD009A1E490198FFF77CFAE9
:101910000120F4E7009B9E001B4B9A594B461B4944
:101920000198FFF771FA0120E9E72000FEF7F9FFBF
:10193000261A3000FEF7FBFF062816D9B01DFEF769
:10194000F6FF2418002812D02000FEF7E4FF241828
:10195000002C0ED0211D2B685B684A462800984752
:10196000386000280BD00020C9E70020E9E70024F8
:10197000EEE707490198FFF747FA0120BFE701208A
:10198000BDE7C0469CB006105CB70610F0B006106C
:1019900028B10610F0B583B004000D0017001E003A
:1019A0000022002312F09AF8002804D000233B60A4
:1019B000336003B0F0BD3200200029001FF030FD7D
:1019C00000221D4B12F048F812F0A6F912F010F99F
:1019D00004000D1E14DC00290ED080231B069C423F
:1019E00010D0002D26DC21D033681F3302DA00230B
:1019F000336000243C60DCE780231B069842ECD96E
:101A00001DF092FD002DECD1EA0F002312196B415D
:101A10001C001300E10700930194520811430C00CD
:101A2000019B5D10336801333360DAE780231B06C6
:101A30009C42D9D31DF078FD0000E041F8B50600C6
:101A40000F0015001C000022094B12F065F8002859
:101A500009D023002A0030003900FFF79BFF2368DC
:101A6000002B02DBF8BD1DF05FFD1DF05DFDC046E3
:101A70000000F03F30B585B011F0EEFF04000D001E
:101A800080200006089BD84012F05EF822002B0050
:101A900011F0E2FF00900191094A0A4B0292039370
:101AA00012F03AF8002808D16B46186859680A9B6A
:101AB000099AFFF7C3FF05B030BD02ABF5E7C0469A
:101AC0000000C0FFFFFFDF41F0B5C64600B50300D0
:101AD0000C00012098400138D21A20235B42D31811
:101AE0002BD401259D4001239340984612F02CF8F9
:101AF00006000F004046290012F06EF802000B00AD
:101B00003000390011F0A8FF06000F0020235B42CF
:101B1000E31817D4012199400120A04012F05CF88D
:101B200002000B003000390011F08DFF12F042F975
:101B300012F022F880BCB846F0BD20239B1A012584
:101B4000DD40D0E720231B1B0121D940E4E7000042
:101B500030B58BB0019100929D68DC6803950494C8
:101B600001280AD0032820D0022845D00E9B019AD4
:101B70001A600F9B009A1A6013E0291C002012F0D3
:101B800000FD12F03BFE12F06FFD24180594019B3E
:101B9000A34208DB01AB1B680E9A13600F9B009AEF
:101BA0001A600BB030BD05ABF5E7291C002012F020
:101BB000E8FC12F023FE12F057FD20180690019B5E
:101BC000834215DB01AB1B680E9A1360291C1E486B
:101BD00012F0D7FC12F012FE12F046FD2418079402
:101BE000009BA34206DC6B461B680F9A1360D8E784
:101BF00006ABE8E707ABF7E7291C144812F0C1FC75
:101C000012F0FCFD12F030FD20180890019B834279
:101C100016DB01AB1B680E9A1360291CFE208005A1
:101C200012F0AFFC12F0EAFD12F01EFD2418099428
:101C3000009BA34206DC6B461B680F9A1360B0E75B
:101C400008ABE7E709ABF7E70000C040000080BF42
:101C500010B50B6802CB002A10DB8A4210DA920022
:101C600099584B1C0ED000290EDB8368002B02D044
:101C70004801181810BD036D9847FBE70020F9E7ED
:101C80000020F7E70020F5E70020F3E710B54B68E8
:101C900002CB002A10DB914210DD920099584B1CB8
:101CA0000ED000290EDB8368002B02D048011818E3
:101CB00010BD036D9847FBE70020F9E70020F7E728
:101CC0000020F5E70020F3E710B5FFF7C1FF10BDD6
:101CD000F0B5C64600B582B080461D0088689168A0
:101CE00012F054FC041C12F0F9FC06000F00002155
:101CF000201C12F089FC002810D0A86812F0EEFC1D
:101D000002000B003000390011F09DFE089B1860A6
:101D10005960002002B080BCB846F0BD43465C6903
:101D2000A123044A00925B00034A04494046A047AD
:101D30000120EFE7A0B9061070B9061068B00610D0
:101D4000F0B5C64600B584B080460D0016001C00F4
:101D50000A9F886812F0C2FC02900391B06812F0EA
:101D6000BDFC02000B000298039911F075FE029071
:101D70000391002C1AD0A06812F0B0FC02000B00F6
:101D80000298039911F04DFE02904C006408B86867
:101D900012F0A4FC02000B000298210011F053FE87
:101DA0000E4A0F4B11F0A8FE00280BD00B9B00939E
:101DB0003B00320029004046FFF78AFF04B080BC98
:101DC000B846F0BD43465C693623064A0092FF33AD
:101DD000054A06494046A0470120EFE77B14AE477D
:101DE000E17A943FBCB9061070B9061068B00610CD
:101DF00030B583B00D001400127F032A0DD0092ADC
:101E00000ED0072A19D0446976230D4A0092FF3379
:101E10000C4A0D49A04701200DE0FF22002102E0FD
:101E20007F228021494206980190009323002800D8
:101E3000FFF78EFE002003B030BD044A0449F2E7EC
:101E4000E0B9061070B9061068B00610FF7F0000F8
:101E50000080FFFFF0B5DE4657464E464546E0B5EA
:101E60008DB004000D00049205930E78012E14D05D
:101E700045690123039302967D4B01937D4B0093AB
:101E8000D1237D4A7D49A847012630000DB0F0BC22
:101E9000BB46B246A946A046F0BD049B1F78012F61
:101EA0000CD04569012303930297714B0193744B46
:101EB0000093D323704A7149A847E6E7049B5B6807
:101EC000002B15D01A689146002A1AD01268934642
:101ED000012A5DDD0A7F092A1CD0072A1AD045692C
:101EE000684B0093E323644A6749A8473E00CCE768
:101EF0004569664B0093DE235F4A6349A8473E006D
:101F0000C3E74569624B0093DF235B4A5E49A847FC
:101F10003E00BAE7049A127F092A0ED065690923A8
:101F2000039302925B4B01935B4B0093E523524A70
:101F300052492000A8473E00A7E71E9A93450ED0BD
:101F4000656903925B460293544B0193544B009393
:101F5000E623494A49492000A8473E0095E7049AEC
:101F6000526906929B689B00944663445B681E9A84
:101F700093420DD06569039302924A4B0193474BFC
:101F80000093E7233C4A3D492000A8473E007CE7F8
:101F9000AB680693169B9B689A464B46043307939F
:101FA00000235F461E00A346A84623E04B46586820
:101FB00012F094FB04000D00069812F08FFB220033
:101FC0002B0011F049FD04000D00504612F086FB75
:101FD00002000B002000290011F035FD0AAB09AA10
:101FE000FFF7D8FCB3001C9A0999D1501D9A0A99A1
:101FF000D15001361E9B9E4205DA012FD6DDB3007B
:10200000079AD058D4E75C4645462B7F032B08D06F
:102010002B7F092B21D0032B1FD0072B1DD000268F
:1020200033E7002200230A920B930AAB0193169B1D
:102030000093059B049A41465846FFF781FE061E11
:1020400000D022E709AB189A0A980B99FFF7A2FC77
:10205000099B5B42199A1360DAE7179B19781B9B5F
:1020600000931A9B169A2000FFF7C2FE06000CE7A9
:1020700004BA061020BA061070B90610E8B90610A6
:102080003CBA061088BA061068B0061058BA061096
:102090006CBA0610C4BA0610D0BA0610E0BA061020
:1020A000F0BA061014BB061010B5002801D0006865
:1020B00010BD1DF039FA002800D00068704710B537
:1020C000002801D0006810BD1DF02EFA002800D0B5
:1020D0000068704710B5002801D0006810BD1DF0E1
:1020E00023FA002800D00068704770470840704706
:1020F0000841704740187047C043704710B500282A
:1021000002D00020FFF7F8FF10BD10B50123884270
:1021100000DB00231800FFF7F1FF10BD10B501230D
:10212000884200DC00231800FFF7E8FF10BD10B55F
:10213000002801D0006810BD1DF0F6F9012808D074
:1021400003280BD002280ED00A4B0B600A4B1360F9
:1021500003E000230B60084B1360704700230B6003
:10216000064B1360F9E7064B0B60FE239B051360DB
:10217000F3E7C046FFFF7FFFFFFF7F7F0000C04007
:10218000000080BF10B5836B002B02D03821984728
:1021900010BD1DF0C9F90000F0B5DE4657464E46A9
:1021A0004546E0B593B005000C0016001F0021ABBA
:1021B0001B780B930B681B68032B0AD0022B08D0EB
:1021C0004469674B00935723664A6749A04701203B
:1021D00011E063681B68012B14D06C690122039223
:1021E0000293624B0193624B009358235D4A61490D
:1021F0002800A047012013B0F0BCBB46B246A94658
:10220000A046F0BD33789846B3689A4673689946FD
:1022100073699B4633690D931D9A501E58430130D4
:102220004346012B3FD0022B46D000230C931E9B2C
:10223000581E5B46584301304346012B44D0022BC5
:102240004AD000201E9B013B5A46534301330138BC
:10225000524650431B181C9A9B1A44D40121194022
:10226000DA0FD3185B100F9311911D9B013B0D9A50
:10227000534301330C9801384A4650431B18DB1B6B
:1022800033D401211940DA0FD3185B100EAA0E9334
:102290001091229B83CA83C312681A600B9B012B87
:1022A00025D10020A7E73B004B44180001384946E0
:1022B00011F046F90C90BAE73B004B44181A494616
:1022C00011F03EF90C90B2E71C9B53441800013802
:1022D000514611F035F9B5E71C9B5344181A514685
:1022E00011F02EF9AEE70023B8E70023C9E700227A
:1022F00021002800FFF7ACFC8046012221002800C5
:10230000FFF7A6FC0700022221002800FFF7DCFCF3
:102310008146002221002800FFF7B8FC7B695B683A
:102320000C36229A926A0B9208930792229B5B6A60
:102330000B930693229B30330593229B2C330493FB
:10234000229B20330393229C1C340294019600901C
:102350004B463A0041462800FFF77CFD4BE7C0465C
:102360008CBB061054BB061068B006105CC006108B
:10237000B0BB0610E8B90610F0B5DE4657464E462B
:102380004546E0B5AFB004000D008E68002E21D0A8
:10239000CB689A46002B1FD00022FFF759FC07009C
:1023A000012229002000FFF753FC8146002229006A
:1023B0002000FFF76BFC8046002F0FD0796904C91D
:1023C000002326932692052A0BDC269B052B0ADD8B
:1023D000279809E01DF0A8F81DF0A6F80023269321
:1023E00005E01DF0A1F827A8920012F089FA4346F3
:1023F000002B0BD0596904C9002320932092052A91
:1024000006DC209B052B05DD219804E0209305E0E8
:102410001DF08AF821A8920012F072FA269B002B78
:1024200000DC96E0052B00DC95E0279B1B68209ADA
:10243000002A00DC91E0052A00DC90E0219A126875
:102440009A4200D08DE02D93209A002A00DC8AE089
:10245000052A00DC89E0219A12682C92934200DD63
:1024600085E02DAB19681C917B699A681D92DB6829
:1024700008931E93269B032B00DC7AE0052B00DCDF
:1024800079E0279BDA681F92209B032B00DC74E025
:10249000052B00DC73E0219BDB6818934B465B69DE
:1024A00098681990D8681A901B9214914246526904
:1024B00091681591D26808921692209A032A60DDDD
:1024C000052A60DD219AD26817925B689B009B46C3
:1024D00019002000A36B9847706259462000A36B37
:1024E0009847B0621E9B08931D9A09921A9A1999EF
:1024F0001698159B9C463B7F06960593634604936E
:10250000039002910192099A0092089B5246290079
:102510002000FFF741FE051E0DD1FB6833614B46DD
:10252000DB6873614346DB68B3613A7F092A2CD0CC
:1025300001235B427363209B052B4EDC269B052BFE
:102540004DDC28002FB0F0BCBB46B246A946A046E1
:10255000F0BD1CF0E9FF279B69E71CF0E5FF219A1D
:102560006EE71CF0E1FF1CF0DFFF219A75E72CAB52
:1025700078E71CF0D9FF2A9A85E71CF0D5FF249B49
:102580008BE71CF0D1FF249A9EE7FA6852420A9228
:102590000B9353469B680D9353465B680C935346CD
:1025A0005B69119353461B690893109373680F93EB
:1025B00033680E93F36A1293336B139314AB18AA18
:1025C0001CA90AA80BF05FF8011EB1DD236C3200D4
:1025D0003432200098470500ADE71CF0A5FF1CF041
:1025E000A3FFF0B5DE4657464E464546E0B5A3B0DC
:1025F0000F0003929B462D9B0A21425E13920C21F1
:10260000425E14920E21425E05921021425E0A92B1
:102610000221425E15920421425E1692026B1092D4
:10262000426B0E923A68042A00D080E05A46126843
:10263000042A7ED12F9A12680092042A7BD13A682C
:10264000002A7ADD052A7ADD7A6812682F990968EE
:10265000002976DD052976DD2F99496809689142C0
:1026600074D121922F990968002971DD052971DD46
:102670002F994968096820918A426EDC21AA126864
:1026800017923A68032A6ADD052A6ADD7A68D268F9
:1026900059460968032966DD052966DD59464968FA
:1026A000C968914264D11F9259460968032961DDC6
:1026B000052961DD59464968C9681E918A425EDC78
:1026C0001FAA126802925A461268002A59DD052A8A
:1026D00059DD5A46526812682F990968032955DD59
:1026E000052955DD2F994968C968914253D11D923A
:1026F0002F990968032950DD052950DD2F99496874
:10270000C9681C918A424DDC1DAA12680F922E9A4C
:10271000002A4ED01868052846DD5B68002201219A
:10272000904243DD9400E45861430132F8E71CF025
:10273000FBFE1CF0F9FE1CF0F7FE1CF0F5FE7A68BB
:1027400084E71CF0F1FE2F99496888E71CF0ECFE45
:102750001CF0EAFE2F9949688DE720AA8FE71CF04C
:10276000E3FE3A6994E71CF0DFFE5946096998E7F1
:102770001CF0DAFE1CF0D8FE594609699DE71EAA36
:102780009FE71CF0D1FE5A465268A5E71CF0CCFE2C
:102790002F990969A9E71CF0C7FE1CF0C5FE2F9907
:1027A0000969AEE71CAAB0E70433B7E70F9B8B4279
:1027B0003AD13B68012B39DD052B39DD7B685B683D
:1027C00008933B68022B36DD052B36DD7B689B6862
:1027D00007935B461B68012B32DD052B32DD5B4620
:1027E0005B685B6809935B461B68022B2EDD052B3B
:1027F0002EDD5B465B689B6804932F9B1B68012B57
:102800002ADD052B2ADD2F9B5B685B6812932F9BCB
:102810001B68022B26DD052B26DD2F9B5B689B6842
:102820001193002300933DE11CF07EFE1CF07CFE22
:10283000BB680893C5E71CF077FEFB680793C8E701
:102840001CF072FE5B469B680993CCE71CF06CFEA3
:102850005B46DB680493D0E71CF066FE2F9B9B6809
:102860001293D4E71CF060FE2F9BDB681193D8E72E
:102870001CF05AFE1CF058FE1CF056FE1CF054FED4
:102880001CF052FE1CF050FE1CF04EFE1CF04CFEE4
:102890001CF04AFE1CF048FE4346B046AB461E0004
:1028A0000136049B9E4266DA059D7543069BED1832
:1028B000F6D4079B9D42F3DA4B46002BF0DB089BD6
:1028C0009945EDDA0024320046465B46AB461D00D2
:1028D0009046029B9C42DFDA3B68042BC8D1009BE8
:1028E000002BC7DB7A689342C4DA4B46002BC3DB6C
:1028F000BB689945C0DA5A46002ABFDBF9688B45A8
:10290000BCDA002CBCDB3A699442B9DA0098434344
:102910004B444B435B445343E3189B00039A985842
:102920002B68042BAED1002EAEDB6B689E42ABDA77
:102930005346002BAADBAB689A45A7DA4246002A29
:10294000A6DBE9688845A3DA002CA3DB2A69944258
:10295000A0DA734353444B4343445343E3189B006F
:102960002C9A995811F012FE011C019811F004FEE6
:1029700001900134ADE701239C46E244099B9A454E
:1029800007DA0A9B524653430B9A91469944002614
:1029900087E72E9B002B54D043469B002E9AD1589C
:1029A000019811F0E9FD2F9B1B680193042B4AD17C
:1029B000009B002B49DB2F9A52680192934244DA24
:1029C0000C9B002B43DB2F9A9568AB423FDA0D9BA3
:1029D000002B3EDB2F9AD1688B423ADA4346002B1C
:1029E00039DB2F9B1A69904535DA009B5D430C9BC0
:1029F0009C4665444D430D9B9C4665445543454468
:102A0000AD00309B9C466544199010991A910E9B1D
:102A10001B9311F0F3FD00281FD119AC21680E980B
:102A200011F0ECFD00281AD123682B6001239C468D
:102A3000E0440F9B984514DA00239A460023019343
:102A40009CE70021ACE71CF06FFD1CF06DFD1CF055
:102A50006BFD1CF069FD1CF067FD1AACDEE71BACDA
:102A6000E2E70D9B01330D930D9A11998A4207DA23
:102A7000139B5343159A9B1A069300239846D8E755
:102A80000C9B01330C930C9A12998A4207DA149B1F
:102A90005343169A9B1A0B9300230D93E4E7009B74
:102AA00001330093009B179A934202DA00230C93A0
:102AB000E9E723B0F0BCBB46B246A946A046F0BD4C
:102AC00030B5044B020032CB32C232CB32C212CB11
:102AD00012C230BD14BD0610F0B5DE4657464E4654
:102AE0004546E0B5B7B015001E00107B16AA17A921
:102AF000FFF724FB2B78012B02D0022B00D0002300
:102B000008AC2370336863807368A3806B6863814B
:102B1000AB68A3812B69E3816B692382179B1493B4
:102B2000169B1593409918A807F0CFF94098FFF726
:102B3000BBFA814641991EA807F0C7F94198FFF7F3
:102B4000B3FA824624AD4299280007F0BEF94298B4
:102B5000FFF7AAFA83462AAE4599300007F0B5F987
:102B60004598FFF7A8FA804630AF4399380007F040
:102B7000ACF94398FFF79FFA0690059743460493F4
:102B800003965B4602930195534600931EAB4A465B
:102B900018A92000FFF725FD309B052B13DC2A9B8D
:102BA000052B12DC249B052B11DC1E9B052B10DC56
:102BB000189B052B0FDC002037B0F0BCBB46B2469B
:102BC000A946A046F0BD1CF0AFFC1CF0ADFC1CF00B
:102BD000ABFC1CF0A9FC1CF0A7FC0000F0B5DE4625
:102BE00057464E464546E0B5A7B0139114921E00D5
:102BF000319D339B426902920A21425E17920C2159
:102C0000425E18920E21425E04921021425E0992A9
:102C10000221425E19920421425E1A92C269129206
:102C2000816A1F91C26A1E92914276DC3268042A40
:102C300075D12A68042A74D1359A12680092042A40
:102C400071D13268002A70DD052A70DD7268126861
:102C50003599096800296CDD05296CDD35994968CD
:102C6000096891426AD1259235990968002967DD82
:102C7000052967DD35994968096824918A4264DC31
:102C800025AA12681B923268032A60DD052A60DDDE
:102C90007268D268296803295DDD05295DDD6968F0
:102CA000C96891425BD123922968032959DD05291E
:102CB00059DD6968C96822918A4256DC23AA1268E4
:102CC00001922A68002A52DD052A52DD6A681268DC
:102CD0003599096803294EDD05294EDD3599496886
:102CE000C96891424CD1219235990968032949DD7F
:102CF000052949DD35994968C96820918A4246DC31
:102D000021AA12681192349A002A4DD01868052819
:102D10003FDD5B680022012141E01CF005FC1CF056
:102D200003FC1CF001FC1CF0FFFB1CF0FDFB7268B7
:102D30008EE71CF0F9FB3599496892E71CF0F4FB2B
:102D40001CF0F2FB3599496897E724AA99E71CF033
:102D5000EBFB32699EE71CF0E7FB2969A1E71CF059
:102D6000E3FB1CF0E1FB2969A5E722AAA7E71CF019
:102D7000DBFB6A68ACE71CF0D7FB35990969B0E763
:102D80001CF0D2FB1CF0D0FB35990969B5E720AAED
:102D9000B7E70433BEE79400E45861430132904240
:102DA000F9DC119B8B4238D13368012B37DD052BC1
:102DB00037DD73685B6807933368022B34DD052BBE
:102DC00034DD73689B6806932B68012B31DD052B7E
:102DD00031DD6B685B6808932B68022B2EDD052BB9
:102DE0002EDD6B689B680393359B1B68012B2ADDE6
:102DF000052B2ADD359B5B685B681693359B1B684A
:102E0000022B26DD052B26DD359B5B689B68159321
:102E1000002733003E001F00D6E11CF085FB1CF0AC
:102E200083FBB3680793C7E71CF07EFBF368069348
:102E3000CAE71CF079FBAB680893CDE71CF074FB84
:102E4000EB680393D0E71CF06FFB359B9B681693F0
:102E5000D4E71CF069FB359BDB681593D8E71CF0C1
:102E600063FB1CF061FB1CF05FFB1CF05DFB1CF0C6
:102E70005BFB1CF059FB1CF057FB1CF055FB1CF0D6
:102E800053FB1CF051FBB146464680466046009B12
:102E90009C460130039B98426BDA04994143059BA1
:102EA000C918F6D4069B9942F3DA002EF1DB079B92
:102EB0009E42EEDA00220B006146009184464046B5
:102EC000B0464E469946019B9A42DCDA3B68042B99
:102ED000C5D100990029C4DB7B689942C1DA434619
:102EE000002BC0DBBB689845BDDA4C46002CBCDB30
:102EF000FC68A246A145B8DA002AB8DB3C69A242C8
:102F0000B5DA00994B43434451464B434B4463432A
:102F1000D3183099CC562B68042BAAD10028AADBF1
:102F20006B689842A7DA002EA7DBAB689E42A4DA52
:102F300061460029A3DBE9688B468C459FDA002AAD
:102F40009FDB29698A468A429BDA4343F318594634
:102F50004B43634451464B43D3183299CB560299A5
:102F60008A4654445C431D9B9A4654441D94013246
:102F7000A9E701239A46D144089B994507DA099E9F
:102F80004B465E430E9B9A465644002082E76646B7
:102F900044463195349B002B06D0A300349A9B58AD
:102FA0001D9A944663441D931D98A300139AD2580A
:102FB0001499CB58191E00DAB1E0002B00DCB0E008
:102FC00000239A468840824200D1ADE00023984613
:102FD000C117D31711F0AEFA02000B1E00DAADE0F4
:102FE0008021C9050A91C9170B910A980B991218EB
:102FF0004B41D917490049080C9100210D910C98BB
:103000000D9912184B4111005B00CA0F13439946EA
:103010004346002B00D093E05346002B00DA92E0A9
:103020001F2B00DD96E0012098400138FFF75DF886
:1030300080460020FFF759F800900120FFF755F86F
:10304000834641464846FFF751F8050001214046B6
:10305000FFF74EF8804600994846FFF756F8594664
:10306000FFF744F801004046FFF744F88046514618
:103070004846FFF73DF8814641462800FFF74EF8E5
:103080005946FFF733F801004846FFF733F81D9023
:10309000129B9C4660441D901F9B984261DB1DABB8
:1030A0001B681D931E9A93425DDC1DAB1A681D922E
:1030B000359B1B680093042B57D1002E57DB359BA3
:1030C0005B6800939E4252DA0F99002951DB359BD1
:1030D0009B6899424DDA109900294CDB3598C068FD
:1030E000814248DA002C48DB359909698C4244DA80
:1030F00073430F9DAC466344434310988446634436
:103100004B43E3183699CA540134119B9C4236DA7A
:1031100000231D939946B446A046319D2CE700211B
:103120004BE75B429A464DE780231B06984202D04C
:10313000002398464CE70123984649E7294951E77F
:10314000294B994668E7B321284B294A4900294869
:103150000EF0C0FC6821284B254AFF3125480EF0AF
:10316000B9FC1FAB9CE71EABA0E71CF0DDF91CF01F
:10317000DBF91CF0D9F91CF0D7F91CF0D5F9B346EE
:10318000319D109B01331093109A15998A4209DAE8
:10319000179B5343199A9B1A059300235E461C0004
:1031A0003195B2E75E460F9B01330F930F9A169944
:1031B0008A4208DA189B53431A9A9B1A0E930023EB
:1031C0001093B346E0E701361B9B9E4202DA0023D0
:1031D0000F93EBE727B0F0BCBB46B246A946A0462A
:1031E000F0BDC046010000C0FFFFFF7FC4BB06105A
:1031F000D4BB061030BC061064BC0610F0B5DE4629
:1032000057464E464546E0B5E7B004001D005369F9
:10321000459316694496012B01D1012E63D02B6989
:103220005B4230AC6361AB69E3619368A38153682F
:103230006381536923821369E3816B68A3802B68E0
:103240006380EB6AA3622B6BE3626B6A9A46AB6A9C
:103250009B46709948A806F038FE7098FEF72FFF3D
:1032600009904EAF7199380006F02FFE7198FEF765
:1032700026FF804654AD7299280006F026FE72980B
:10328000FEF755FF81465AAE7399300006F01DFED9
:103290007398FEF71BFF069005964B460493039523
:1032A000434602930197099B009348AB5A46514607
:1032B0002000FFF793FC5A9B052B00DD87E1549B10
:1032C000052B00DD85E14E9B052B00DD83E1489B4E
:1032D000052B00DD81E1002067B0F0BCBB46B246A3
:1032E000A946A046F0BD2B695B423E93AB693F9374
:1032F000936841935368099340936B6843932B6899
:103300004293EB6A46932B6B47936B6A0A93AB6AC3
:103310000B9371991EA806F0D8FD709924A806F0A9
:10332000D4FD73992AA806F0D0FD729930A806F052
:10333000CCFD469A479B9A426BDC249B042B6AD1B6
:103340001E9B042B69D12A9B042B68D1249B002B44
:1033500067DD052B67DD259B1B682A9A002A64DD43
:10336000052A64DD2B9A12689A4262D165932A9AE3
:10337000002A60DD052A60DD2B9A12686492934270
:103380005DDC65AB1B689846249B032B59DD052B40
:1033900059DD259BDB681E9A032A56DD052A56DD7A
:1033A0001F9AD2689A4254D163931E9A032A52DD1F
:1033B000052A52DD1F9AD268629293424FDC63ABBA
:1033C0001B6899461E9B002B4BDD052B4BDD1F9B7D
:1033D0001B682A9A032A48DD052A48DD2B9AD26801
:1033E0009A4246D161932A9A032A44DD052A44DD94
:1033F0002B9AD2686092934241DC61AB1F6872984D
:10340000FEF75DFE002847D03099052939DD319857
:1034100038E01CF089F81CF087F81CF085F81CF0E7
:1034200083F81CF081F8259B97E71CF07DF82B9A18
:103430009AE71CF079F81CF077F82B9A9EE764ABBA
:10344000A0E71CF071F8289BA5E71CF06DF8229A04
:10345000A8E71CF069F81CF067F8229AACE762ABA9
:10346000AEE71CF061F81F9BB3E71CF05DF82E9AE5
:10347000B6E71CF059F81CF057F82E9ABAE760AB83
:10348000BCE731A8002303E09A00125856430133E9
:103490009942F9DCB74278D143460E93249B012B25
:1034A00075DD052B75DD259B5B680F93249B022B37
:1034B00071DD052B71DD259B9B6810934B461193A5
:1034C00012971E9B012B6ADD052B6ADD1F9B5B6833
:1034D00013931E9B022B66DD052B66DD1F9B9B68ED
:1034E00014934B461593012316931793189319972A
:1034F00043461A932A9B012B59DD052B59DD2B9B43
:103500005B681B932A9B022B55DD052B55DD2B9BFE
:103510009B681C931D9700230C930D93696B0029E6
:1035200003DB636C200098470C907098FEF7C7FD92
:1035300004007198FEF7C3FD05007298FEF7F7FDD1
:1035400006007398FEF7C2FD06901AAB0593049629
:1035500016AB0393029512AB019300940EAB0AAA2B
:103560003EA90CA80AF039F8002828D1309B052B79
:1035700027DC2A9B052B26DC249B052B25DC1E9BA8
:10358000052B00DCA7E61BF0CFFF1BF0CDFF1BF0E7
:10359000CBFF269B89E71BF0C7FF279B8DE71BF01E
:1035A000C3FF209B94E71BF0BFFF219B98E71BF014
:1035B000BBFF2C9BA5E71BF0B7FF2D9BA9E71BF0DA
:1035C000B3FF1BF0B1FF1BF0AFFF1BF0ADFF1BF013
:1035D000ABFF1BF0A9FF1BF0A7FF1BF0A5FF00002E
:1035E000F0B5DE4657464E464546E0B5ABB00E0058
:1035F00005921D00359B0A21425E1B920C21425E02
:103600001C920E21425E07921021425E0C92022112
:10361000425E1D920421425E1E92426903928269BB
:103620000492C2691892026A1492426A1592816ADF
:103630002391C26A2292914276DC3268042A75D1C3
:103640002A68042A74D1379A12680192042A71D127
:103650003268002A70DD052A70DD726812683799B9
:10366000096800296CDD05296CDD3799496809680E
:1036700091426AD1299237990968002967DD0529A5
:1036800067DD37994968096828918A4264DC29AA6C
:1036900012681F923268032A60DD052A60DD7268B5
:1036A000D268296803295DDD05295DDD6968C9687F
:1036B00091425BD127922968032959DD052959DDFB
:1036C0006968C96826918A4256DC27AA1268029264
:1036D0002A68002A52DD052A52DD6A681268379985
:1036E000096803294EDD05294EDD37994968C96807
:1036F00091424CD1259237990968032949DD052962
:1037000049DD37994968C96824918A4246DC25AA6F
:1037100012681792369A002A4DD0186805283FDDA6
:103720005B680022012141E01BF0FEFE1BF0FCFE65
:103730001BF0FAFE1BF0F8FE1BF0F6FE72688EE737
:103740001BF0F2FE3799496892E71BF0EDFE1BF083
:10375000EBFE3799496897E728AA99E71BF0E4FE42
:1037600032699EE71BF0E0FE2969A1E71BF0DCFE51
:103770001BF0DAFE2969A5E726AAA7E71BF0D4FE0D
:103780006A68ACE71BF0D0FE37990969B0E71BF017
:10379000CBFE1BF0C9FE37990969B5E724AAB7E744
:1037A0000433BEE79400E458614301329042F9DCEF
:1037B000179B8B4238D13368012B37DD052B37DD62
:1037C00073685B680A933368022B34DD052B34DDA4
:1037D00073689B6809932B68012B31DD052B31DD64
:1037E0006B685B680B932B68022B2EDD052B2EDD9F
:1037F0006B689B680693379B1B68012B2ADD052BA2
:103800002ADD379B5B685B681A93379B1B68022B2A
:1038100026DD052B26DD379B5B689B681993002707
:1038200033003E001F00D8E11BF07EFE1BF07CFE43
:10383000B3680A93C7E71BF077FEF3680993CAE7FA
:103840001BF072FEAB680B93CDE71BF06DFEEB68CF
:103850000693D0E71BF068FE379B9B681A93D4E76A
:103860001BF062FE379BDB681993D8E71BF05CFE08
:103870001BF05AFE1BF058FE1BF056FE1BF054FEC8
:103880001BF052FE1BF050FE1BF04EFE1BF04CFED8
:103890001BF04AFEB146464680466046019B9C4668
:1038A0000130069B98426EDA07994143089BC9187C
:1038B000F6D4099B9942F3DA002EF1DB0A9B9E4273
:1038C000EEDA00220B006146019184464046B04684
:1038D0004E469946029B9A42DCDA3B68042BC5D1DE
:1038E00001990029C4DB7B689942C1DA4346002B69
:1038F000C0DBBB689845BDDA4C46002CBCDBFC68DD
:10390000A246A145B8DA002AB8DB3C69A242B5DA82
:1039100001994B43434451464B434B446343D318B3
:103920000599CC5C2B68042BAAD10028AADB6B6814
:103930009842A7DA002EA7DBAB689E42A4DA614664
:103940000029A3DBE9688B468C459FDA002A9FDBC0
:1039500029698A468A429BDA4343F31859464B4306
:10396000634451464B43D3183499CB5C04998A463F
:10397000534403998A4654445C43219B9A465444D9
:1039800021940132A6E701239A46D1440B9B994525
:1039900007DA0C9E4B465E430D9B9A465644002028
:1039A0007FE7664644460195369B002B06D0A30070
:1039B000369A9B58219A9446634421932198159AEC
:1039C000131E00DAB4E0159A002A00DCB2E00022EF
:1039D00092469840149B834200D1AEE00023984663
:1039E000C117149AD31710F0A5FD02000B1E00DAC0
:1039F000ADE08021C9050E91C9170F910E980F995E
:103A000012184B41D9174900490810910021119112
:103A10001098119912184B4111005B00CA0F134303
:103A200099464346002B00D093E05346002B00DA22
:103A300092E01F2B00DD96E0012098400138FEF750
:103A400054FB80460020FEF750FB16900120FEF745
:103A50004CFB834641464846FEF748FB05000121E2
:103A60004046FEF745FB804616994846FEF74DFB5B
:103A70005946FEF73BFB01004046FEF73BFB804604
:103A800051464846FEF734FB814641462800FEF782
:103A900045FB5946FEF72AFB01004846FEF72AFB84
:103AA0002190189B9C4660442190239B984261DBA7
:103AB00021AB1B682193229A93425DDC21AB1A68EB
:103AC0002192379B1B681693042B57D1002E57DB8E
:103AD000379B5B6816939E4252DA1299002951DB9C
:103AE000379B9B6899424DDA139900294CDB379834
:103AF000C068814248DA002C48DB379909698C425A
:103B000044DA7343129DAC4663444343139884469E
:103B100063444B43E3183899CA540134179B9C42C1
:103B200036DA002321939946B446A046019D2DE73D
:103B3000002348E7524292464BE780231B069842F7
:103B400002D0002398464BE70123984648E72949CD
:103B500051E7294B994668E7B321284B284A490089
:103B600028480DF0B7FF6821274B254AFF3125482B
:103B70000DF0B0FF23AB9CE722ABA0E71BF0D4FC19
:103B80001BF0D2FC1BF0D0FC1BF0CEFC1BF0CCFCDD
:103B9000B346019D139B01331393139A19998A42DB
:103BA00009DA1B9B53431D9A9B1A089300235E4618
:103BB0001C000195B2E75E46129B01331293129AE4
:103BC0001A998A4208DA1C9B53431E9A9B1A0D933A
:103BD00000231393B346E0E701361F9B9E4202DAAF
:103BE00000231293EBE72BB0F0BCBB46B246A946CC
:103BF000A046F0BD010000C0FFFFFF7FC4BB061060
:103C0000D4BB061030BC061064BC0610F0B5DE460E
:103C100057464E464546E0B5B5B019694D4259691B
:103C200048429E691178012902D0022900D0002162
:103C300008AC2170196861805968A1805168618160
:103C40009168A1811169E181526922820D950E90DE
:103C50000F96DA6910921A6A52421192DA6A129237
:103C60001B6B13933E9916A806F02FF93E98FEF7AA
:103C700031FA81463F991CA806F027F93F98FEF7D4
:103C800029FA824622AD4099280006F01EF9409894
:103C9000FEF74DFA834628AE4399300006F015F939
:103CA0004398FEF71EFA80462EAF4199380006F081
:103CB0000CF94198FEF715FA002307930690059733
:103CC0004346049303965B46029301955346009343
:103CD0001CAB4A4616A92000FFF782FC2E9B052B41
:103CE00013DC289B052B12DC229B052B11DC1C9B73
:103CF000052B10DC169B052B0FDC002035B0F0BC2B
:103D0000BB46B246A946A046F0BD1BF00DFC1BF019
:103D10000BFC1BF009FC1BF007FC1BF005FC000072
:103D2000F0B5CE46474680B587B004000D00CB689D
:103D30009946002839D0002939D00B685968436D5D
:103D400098470600002C34D0002D34D02B68996899
:103D50002000636D984707002B681B68032B2CD04D
:103D600000239846002C37D0002D37D06B68596857
:103D70002000636D9847AB68002B31D0327A017A0E
:103D80008A422FD06569D32303910292374A019268
:103D9000374A00925B00374A37492000A847012084
:103DA00007B0C0BCB946B046F0BD1BF0BDFB1BF070
:103DB000BBFB1BF0B9FB1BF0B7FB002C08D0002DA0
:103DC00008D02B68D9682000636D98478046C9E702
:103DD0001BF0AAFB1BF0A8FB1BF0A6FB1BF0A4FB2F
:103DE0001BF0A2FB397A8A4205D06369234920007F
:103DF00098470120D4E7032A2AD0092A1BD0012A98
:103E00000AD065691000FCF7BBFF0200337A1C4939
:103E10002000A8470120C3E70590002204920392E6
:103E200042460292019700964A4629002000FEF77A
:103E300053FE0020B4E7002204920390424602920F
:103E4000019700964A4629002000FFF7D7F9A7E717
:103E50000590002204920392424602920197009636
:103E60004A4629002000FFF7D1FE99E774BC0610EE
:103E700084BC061054BB0610E8B9061090BC0610AE
:103E8000F8BC061010B5836B002B02D03821984780
:103E900010BD1BF049FB0000F0B5DE4657464E460C
:103EA0004546E0B591B005000C0016000B931DAB24
:103EB0001B7898460B681B68032B0AD0022B08D08E
:103EC0004469614B00934923604A6149A04701203E
:103ED00011E063681B68012B14D06C690122039206
:103EE00002935C4B01935C4B00934A23574A5B4916
:103EF0002800A047012011B0F0BCBB46B246A9463D
:103F0000A046F0BD01235B421E9A5363B3689B46F3
:103F100073689A463778012F34D0022F3BD00023A4
:103F20009946012F41D0022F48D00023013B5A4629
:103F300053431C9A944663441A9A9B1A48D401210D
:103F40001940DA0FD3185B100D930F9148460138D2
:103F5000534658431B9B9C4660440B9BC71A39D45D
:103F600001213940FB0FDF197F100CAA0C970E912D
:103F70001E9B83CA83C312681A604346012B2BD150
:103F80000020B8E70B9B53441800013851460FF04E
:103F9000D7FA8146C5E70B9B534418001B9BC01AF8
:103FA00051460FF0CDFA8146BBE71A9B5B441800DF
:103FB000013859460FF0C4FA0300B7E71A9B5B4477
:103FC00018001C9BC01A59460FF0BAFA0300ADE75F
:103FD0000023B4E70027C3E7002221002800FDF7F3
:103FE00037FE8046012221002800FDF731FE070040
:103FF000022221002800FDF767FE814600222100F1
:104000002800FDF743FE7B691B6910361E9A926AF1
:104010000B92089307921E9B5B6A0B9306931E9B61
:10402000303305931E9B2C3304931E9B2033039344
:104030001E9C1C340294019600904B463A00414667
:104040002800FDF707FF56E78CBB061034BD0610AD
:1040500068B006105CC00610B0BB0610E8B90610C8
:10406000F0B5DE4657464E464546E0B5BBB00400C7
:104070000D008F68002F56D0CB689A46002B54D085
:104080000022FDF7E5FD0600012229002000FDF7D2
:10409000DFFD8046002229002000FDF7F7FD0A9091
:1040A000337F9B467369DA6806929B6807934346A1
:1040B0005B69DA6808929A6809925A46092A36D0EA
:1040C0001B699B00994619002000A36B98477862F2
:1040D00049462000A36B9847B86204975B46039358
:1040E000099B0293089B0193079B0093069B5246F2
:1040F00029002000FFF7D0FE814600280BD1F3688D
:104100003B614346DB687B610A9BDB680B93BB61C9
:10411000337F092B65D048463BB0F0BCBB46B24666
:10412000A946A046F0BD1BF0FFF91BF0FDF9424681
:1041300012789146012A0FD06569012303930292F8
:10414000C34B0193C34B00938023C34AC349200050
:10415000A84701239946DEE742465268002A14D058
:10416000116800291AD05068002820D00A68012A56
:1041700026D019698A4223D06569B94B00938A23F6
:10418000B54AB8492000A847C5E76569B64B009312
:104190008723B14AB3492000A847BCE76569B34B00
:1041A00000938823AC4AAF492000A847B3E765696C
:1041B000AF4B00938923A84AAA492000A847AAE741
:1041C00001688A4200D17BE7656903910292A94B9D
:1041D0000193A94B00938E239F4AA0492000A84732
:1041E00099E7002E00D1D3E0716904C90023199327
:1041F0001992052A00DDCEE0199B052B00DCCCE0EE
:104200001A98920010F07CFB0A9B002B00D1C6E0AC
:104210000A9B596904C900231F931F92052A00DDD8
:10422000BFE01F9B052B00DCBDE02098920010F042
:1042300067FB4346002B00D1B7E0596904C900234E
:1042400025932592052A00DDB1E0259B052B00DC96
:10425000AFE02698920010F053FB199B042B00D07E
:10426000A9E0259B042B00D0A7E01F9B042B00D0C6
:10427000A5E0199B002B00DCA3E0052B00DCA2E0ED
:104280001A9B1B681F9A002A00DC9EE0052A00DCAE
:104290009DE0209A12689A4200D09AE039931F9AC2
:1042A000002A00DC97E0052A00DC96E0209A1268DC
:1042B0003892934200DD92E039AB1B681F9A032AC3
:1042C00000DC8EE0052A00DC8DE0209AD26825997A
:1042D000032900DC89E0052900DC88E02699C9680B
:1042E000914200D085E037922599032900DC82E0D5
:1042F000052900DC81E02699C96836918A427EDC76
:1043000037AA1268012B7CD10D9307990E9106995B
:104310000F911999032976DD052976DD1A99C96867
:1043200010910121119109991291089913911492F8
:1043300015931F9B012B6ADD052B6ADD209B5B68B3
:1043400016931F9B022B66DD052B66DD209B9B6869
:10435000179318927B6831933B68309315AB11AA81
:104360000DA92BA80AF003FC011E5EDD236C3A00A8
:1043700034322000984700285AD0259B052B4EDC6C
:104380001F9B052B4DDC199B052B4CDC8146C2E69F
:104390000023199338E71BF0C7F81AA831E71F93D9
:1043A00047E71BF0C1F820A840E7259355E71BF02D
:1043B000BBF826A84EE71BF0B7F81BF0B5F81BF0CA
:1043C000B3F81BF0B1F81A9B5CE71BF0ADF8209A2C
:1043D00061E71BF0A9F81BF0A7F8209A68E738AB53
:1043E0006BE71BF0A1F8239A71E71BF09DF8299960
:1043F00076E71BF099F81BF097F829997DE736AA24
:104400007FE71BF091F81BF08FF81D9988E71BF0F0
:104410008BF8219B94E71BF087F8229B98E71BF011
:1044200083F81BF081F81BF07FF801235B427B636C
:10443000259B052B08DC1F9B052B07DC199B052BF7
:1044400000DC68E61BF070F81BF06EF81BF06CF8EF
:1044500004BA06103CBA061034BD0610E8B90610BE
:1044600098BD061068B0061058BA06106CBA06104F
:1044700078BD06101CBE0610F0BA0610F0B5DE4678
:1044800057464E464546E0B5A3B088460A929A463E
:104490002D9B0A21425E11920C21425E12920E2146
:1044A000425E93461021425E00920221425E1392C8
:1044B0000421425E14921221425E10920F92026B0E
:1044C0001592426B0E9242461268042A00D0B9E05F
:1044D00052461268042A00D0B6E02F9A1268019260
:1044E000042A00D0B2E042461268002A00DCAFE0A5
:1044F000052A00DCAEE04246526812682F9909682E
:10450000002900DCA9E0052900DCA8E02F99496812
:104510000968914200D0A5E021922F9909680029ED
:1045200000DCA1E0052900DCA0E02F9949680968BA
:1045300020918A4200DD9CE021AA1268199252461D
:104540001268032A00DC96E0052A00DC95E052465A
:104550005268D2682F990968032900DC90E0052988
:1045600000DC8FE02F994968C968914200D08CE047
:104570001F922F990968032900DC88E0052900DCD7
:1045800087E02F994968C9681E918A4200DD83E05F
:104590001FAA156842461268012A7FDD052A7FDDC1
:1045A000424652685268029242461268022A7BDDF5
:1045B000052A7BDD424652689268019242461268A3
:1045C000032A77DD052A77DD42465268D2681692C3
:1045D00052461268012A73DD052A73DD524652687D
:1045E0005268079252461268022A6FDD052A6FDD73
:1045F00052465268926891462F9A1268012A6BDDE2
:10460000052A6BDD2F9A5268526818922F9A126809
:10461000022A67DD052A67DD2F9A52689268179291
:10462000169A10994A43AA4262D11868052861DD9A
:104630005B680022012190425EDD9400E4586143F2
:104640000132F8E71AF070FF1AF06EFF1AF06CFFF3
:104650001AF06AFF4246526850E71AF065FF2F9938
:10466000496856E71AF060FF1AF05EFF2F99496813
:104670005EE720AA61E71AF057FF5246126969E720
:104680001AF052FF2F9909696FE71AF04DFF1AF0DF
:104690004BFF2F99096977E71EAA7AE71AF044FFC2
:1046A0004246926802927FE71AF03EFF4246D26885
:1046B000019283E71AF038FF42461269169287E7A3
:1046C0001AF032FF5246926807928BE71AF02CFFDD
:1046D0005246D26891468FE71AF026FF2F9A9268C9
:1046E000189293E71AF020FF2F9AD268179297E753
:1046F0001AF01AFF04339CE78D4206D1002305937C
:104700005346CA46D9469B462EE11AF00DFF1AF0D1
:104710000BFF1AF009FF1AF007FF1AF005FF1AF055
:1047200003FF1AF001FF1AF0FFFE1AF0FDFE1AF067
:10473000FBFE1AF0F9FE0134BC426DDA009A7243B6
:104740004244534663435B19F5D401998B42F2DA34
:10475000002AF0DB02998A42EDDA49460968042909
:10476000D5D105990029D4DB484640688142D0DA8A
:10477000002AD0DB494689688C468A42CBDA002B76
:10478000CBDB4946C96809918B42C6DA08980028F4
:10479000C5DB494609690391010003988142BEDAED
:1047A0006146059841438C46624409994A439B18E7
:1047B000039A5343089A944663449B000A9A985874
:1047C0005B461B68042BACD15B465B68002BAADD03
:1047D000002EAADB5B469B689E42A6DA002CA6DB75
:1047E0005B46DB689C42A2DA04990029A1DB5A46A9
:1047F000126991429DDA7343E3185343049A944635
:1048000063449B002C9A99580FF0C0FE011C069837
:104810000FF0B2FE06908EE70136079B9E4201DA4A
:10482000002489E72E9B002B67D0049B9B002E9AC7
:10483000D15806980FF0A0FE2F9B1B680393042B02
:104840005DD1059B002B5CDB2F9A5268039293424B
:1048500057DA0B9B002B56DB2F9A9468A34252DA4F
:104860000C9B002B51DB2F9AD1688B424DDA049BB5
:10487000002B4CDB2F9A1269934248DA059B5C436C
:104880000B9B9C4664444C430C9B9C4664445443A1
:10489000049B9C466444A400309B9C4664441B904B
:1048A00015991C910E9B1D930FF0A8FE002830D186
:1048B0001BAD29680E980FF0A1FE00282BD12B68A4
:1048C00023600D9B01330D930D9A0F998A4224DAD0
:1048D000109B08994B43944663440493119D0C9B91
:1048E0005D43139BED1A129B0B9A5343149A9B1A28
:1048F00098460026002306938FE7002199E71AF0D7
:1049000013FE1AF011FE1AF00FFE1AF00DFE1AF047
:104910000BFE1CADCDE71DADD1E7089B013308931D
:10492000089B169A934202DA00230D93CCE70C9B66
:1049300001330C930C9B179A934202DA00230893DD
:10494000EEE7C846D146BA460B9B01330B930B9B4F
:10495000189A934205DA00230C935746CA46C1467B
:10496000E8E7059B01330593059B199A934202DA08
:1049700000230B93EBE723B0F0BCBB46B246A9463D
:10498000A046F0BD30B5044B020032CB32C232CB70
:1049900032C212CB12C230BD44BE0610F0B5CE46B4
:1049A000474680B5B1B015001E00107C16AA17A9A5
:1049B000FDF7C4FB06AC0123237033686380736882
:1049C000A3806B686381AB68A3816B69E381AB698A
:1049D0002382EB686382179B1293169B139338997B
:1049E00018A805F072FA3898FDF75EFB80463999F1
:1049F0001EA805F06AFA3998FDF756FB814624ADEA
:104A00003A99280005F061FA3A98FDF74DFB070046
:104A10002AAE3B99300005F058FA3B98FDF74BFB66
:104A200004900396029701954B4600931EAB4246B5
:104A300018A92000FFF722FD2A9B052B0DDC249BE3
:104A4000052B0CDC1E9B052B0BDC189B052B0ADCB5
:104A500031B0C0BCB946B046F0BD1AF065FD1AF0E1
:104A600063FD1AF061FD1AF05FFD0000F0B5DE464F
:104A700057464E464546E0B5A9B019911A929B4655
:104A8000339B9A46359B0A21425E14920C21425E6A
:104A900015920E22875E1022855E0221425E1692DA
:104AA0000421425E17921221425E139212924269D1
:104AB0000A92C2691892816A2391C26A2292584668
:104AC0000068042800D0BEE050460068042800D0EA
:104AD000BBE0379800680190042800D0B7E091420D
:104AE00000DDB6E05A461268002A00DCB3E0052A71
:104AF00000DCB2E05A46526812683799096800290A
:104B000000DCADE0052900DCACE0379949680968B4
:104B1000914200D0A9E0279237990968002900DC6A
:104B2000A5E0052900DCA4E03799496809682691C9
:104B30008A4200DDA0E027AA12681F92524612683E
:104B4000032A00DC9AE0052A00DC99E0524652680C
:104B5000D26837990968032900DC94E0052900DC54
:104B600093E037994968C968914200D090E0259256
:104B700037990968032900DC8CE0052900DC8BE00B
:104B800037994968C96824918A4200DD87E025AADF
:104B9000126894465A461268012A00DC81E0052A10
:104BA00000DC80E05A465268526804925A46126805
:104BB000022A7CDD052A7CDD5A46526892689046BE
:104BC0005A461268032A78DD052A78DD5A4652686B
:104BD000D2681B9252461268012A74DD052A74DDE0
:104BE000524652685268079252461268022A70DD95
:104BF000052A70DD524652689668379A1268012A73
:104C00006CDD052A6CDD379A526852681D92379A1E
:104C10001268022A68DD052A68DD379A52689268B0
:104C20001C921B9A13994A43624563D11868052860
:104C300062DD5B680022012190425FDD9400E45850
:104C400061430132F8E71AF06FFC1AF06DFC1AF0BC
:104C50006BFC1AF069FC1AF067FC5A4652684CE784
:104C60001AF062FC3799496852E71AF05DFC1AF0B5
:104C70005BFC379949685AE726AA5DE71AF054FCAD
:104C80005246126965E71AF04FFC379909696BE7DC
:104C90001AF04AFC1AF048FC3799096973E724AA0C
:104CA00076E71AF041FC5A46926804927EE71AF0C1
:104CB0003BFC5A46D268904682E71AF035FC5A46C9
:104CC00012691B9286E71AF02FFC524692680792EF
:104CD0008AE71AF029FC5246D6688EE71AF024FCBF
:104CE000379A92681D9292E71AF01EFC379AD268A2
:104CF0001C9296E71AF018FC04339BE78C4513D1FD
:104D0000002306932C003D00C146D846D346B24648
:104D1000069B1F9A934200DBF2E100230B935B4654
:104D20003393C3469846D7E11AF0FEFB1AF0FCFB1A
:104D30001AF0FAFB1AF0F8FB1AF0F6FB1AF0F4FB83
:104D40001AF0F2FB1AF0F0FB1AF0EEFB1AF0ECFB93
:104D50001AF0EAFB0132AA426BDA3900614341449E
:104D6000019B534302981B18F4D45345F2DA0029EF
:104D7000F0DB04988142EDDA584600680428D5D16A
:104D800006980028D4DB5E467668B042D0DA002967
:104D9000D0DB5846806881468142CBDA002BCBDBE2
:104DA0005846C06809908342C6DA089E002EC5DBCB
:104DB00058460069059005988642BFDA4846069E27
:104DC000704381464944099841435B1805994B4318
:104DD000089989464B443299C95663461B68042B8F
:104DE000AED163465B68002BACDD002CACDB6346C8
:104DF0009B689C42A8DA002AA8DB6346DB689A42DB
:104E0000A4DA03980028A3DB66463669B0429FDA2D
:104E10006343D3187343039881464B443498C35675
:104E20000A98814649445943219B99464944219116
:104E300090E7019E02980134079B9C4203DA00220E
:104E40000196029087E72C0035003E005B46D34672
:104E500067469A46369B002B07D0039B9B00369AE9
:104E60009B58219A9446634421932198039B9B006D
:104E7000199AD2581A99CB58191E00DAD4E0002B8F
:104E800000DCD3E0002398468840824200D1D0E085
:104E900000230193C117D3170FF04CFB02000B1E28
:104EA00000DAD0E08021C9050E91C9170F910E9844
:104EB0000F9912184B41D917490049081091002148
:104EC00011911098119912184B4111005B00CA0FF3
:104ED00013439946019B002B00D0B6E04346002BBC
:104EE00000DAB5E01F2B00DDB9E001209840013861
:104EF000FDF7FBF801900020FDF7F7F80590012081
:104F0000FDF7F3F8029001994846FDF7EFF8099094
:104F100001210198FDF7ECF8019005994846FDF74D
:104F2000F4F80299FDF7E2F801000198FDF7E2F8C4
:104F3000019041464846FDF7DBF880460199099803
:104F4000FDF7ECF80299FDF7D1F801004046FDF7B6
:104F5000D1F82190189B9C4660442190239B984255
:104F600000DA83E021AB1B682193229A93427FDC15
:104F700021AB19682191379B1B680193042B79D1D0
:104F8000069B002B78DB379A52680192934273DAC2
:104F90000B9A002A72DB379B9B689A426EDA0C9A56
:104FA000002A6DDB3798C0688446824268DA039A2B
:104FB000002A67DB37980069824263DA069A534316
:104FC0000B9A90464344624653430C9A944663447A
:104FD0004343039A94466344389AD1540D9B01335A
:104FE0000D930D9A12998A424EDA139B08994B43FE
:104FF00094466344039314980C9B5843169BC01A21
:10500000159B0B9A5343179A9B1A9846002321939A
:105010009C465346DA46339737002E0025006446F7
:10502000339A94469B4607E7002128E75B4298465F
:105030002AE780231B06984202D00023019329E728
:105040000123019326E732492EE7324B994645E783
:10505000B321314B314A490031480CF03BFD682106
:10506000304B2E4AFF312E480CF034FD23AB7AE74B
:1050700022AB7EE71AF058FA1AF056FA1AF054FAF0
:105080001AF052FA1AF050FAD346B246B846089BC4
:1050900001330893089B1B9A934207DA00230D9370
:1050A0005646DA461E9B9B4647469AE7A1462C0089
:1050B0000C9B01330C930C9B1C9A934204DA002343
:1050C000089325004C46E5E725005446CA461E9B3A
:1050D00099460B9B01330B930B9B1D9A934207DA66
:1050E00000230C934B461E93D146A2462C00E2E7C8
:1050F00043463393D8469B46069B0133069307E607
:1051000029B0F0BCBB46B246A946A046F0BDC04699
:10511000010000C0FFFFFF7FC4BB0610D4BB061018
:1051200030BC061064BC0610F0B5DE4657464E464D
:105130004546E0B5E9B004001D00936949935669FE
:105140004896012B01D1012E68D031AC0123237088
:105150002B6863806B68A380536863819368A38125
:10516000E68193692382D36863822B695B42636122
:105170000023A361AB69E36180235B42A362FF3339
:10518000E3626B6A9A46AB6A9B4672994CA804F03C
:105190009CFE7298FCF793FF099052AF7399380008
:1051A00004F093FE7398FCF78AFF804658AD74991B
:1051B000280004F08AFE7498FCF7B9FF81465EAEC1
:1051C0007599300004F081FE7598FCF77FFF06901A
:1051D00005964B4604930395434602930197099B1A
:1051E00000934CAB5A4651462000FFF73FFC5E9BB4
:1051F000052B00DD63E1589B052B00DD61E1529B2F
:10520000052B00DD5FE14C9B052B00DD5DE169B006
:10521000F0BCBB46B246A946A046F0BD2B695B4236
:105220004193AB69429393684593536844936B6889
:1052300047932B68469380235B424A93FF334B93FB
:10524000D368099343936B6A0B93AB6A0C9373997E
:105250001FA804F03AFE729925A804F036FE75994D
:105260002BA804F032FE749931A804F02EFE4A9A5D
:105270004B9B9A4244DC259B002B43DD052B43DDF1
:10528000269B1B682B9A002A40DD052A40DD2C9ABC
:1052900012689A423ED167932B9A002A3CDD052A78
:1052A0003CDD2C9A12686692934239DC67AB1B682E
:1052B00098461F9B032B35DD052B35DD209BDB68D6
:1052C0002B9A032A32DD052A32DD2C9AD2689A42C3
:1052D00030D165932B9A032A2EDD052A2EDD2C9AD8
:1052E000D268649293422BDC65AB1F687498FCF71C
:1052F000E6FE002832D03199052923DD329822E0DC
:105300001AF012F91AF010F9269BBBE71AF00CF903
:105310002C9ABEE71AF008F91AF006F92C9AC2E79F
:1053200066ABC4E71AF000F9239BC9E71AF0FCF852
:105330002F9ACCE71AF0F8F81AF0F6F82F9AD0E77F
:1053400064ABD2E732A8002303E09A001258564318
:1053500001339942F9DCB74200D086E043460F930F
:10536000259B012B00DC82E0052B00DC81E0269BE5
:105370005B681093259B022B7DDD052B7DDD269B35
:105380009B681193259B032B79DD052B79DD269BEB
:10539000DB6812931F9B002B75DD052B75DD209BB1
:1053A0001B6813931F9B012B71DD052B71DD209B67
:1053B0005B6814931F9B022B6DDD052B6DDD209B1D
:1053C0009B681593169701231793189319931A97AF
:1053D00043461B932B9B012B61DD052B61DD2C9B31
:1053E0005B681C932B9B022B5DDD052B5DDD2C9BED
:1053F0009B681D931E9700230D930E93696B0029E4
:1054000003DB636C200098470D907298FCF757FE01
:1054100004007398FCF753FE05007498FCF787FEB0
:1054200006007598FCF752FE06901BAB0593049698
:1054300017AB0393029513AB019300940FAB0BAA28
:1054400041A90DA809F053FB002830D1319B052B51
:105450002FDC2B9B052B2EDC259B052B2DDC1F9B8E
:10546000052B00DCD3E61AF05FF81AF05DF81AF0AD
:105470005BF8279B7DE71AF057F8289B81E71AF025
:1054800053F8299B85E71AF04FF8209B89E71AF01B
:105490004BF8219B8DE71AF047F8229B91E71AF011
:1054A00043F82D9B9DE71AF03FF82E9BA1E71AF0D9
:1054B0003BF81AF039F81AF037F81AF035F81AF004
:1054C00033F81AF031F81AF02FF81AF02DF800001E
:1054D000F0B5DE4657464E464546E0B5ABB08B4686
:1054E0000C929A46359B0A21425E18920C21425E2C
:1054F00019920E22875E1022855E0221425E1A9268
:105500000421425E1B921221425E17921692816A1A
:105510002591C26A249244690A9484690B94C469EF
:105520001C94046A1494406A159058460068042834
:1055300000D0BEE050460068042800D0BBE0379899
:1055400000680190042800D0B7E0914200DDB6E089
:105550005A461268002A00DCB3E0052A00DCB2E0FB
:105560005A465268126837990968002900DCADE094
:10557000052900DCACE0379949680968914200D000
:10558000A9E0299237990968002900DCA5E00529DE
:1055900000DCA4E037994968096828918A4200DD57
:1055A000A0E029AA1268219252461268032A00DC60
:1055B0009AE0052A00DC99E052465268D268379991
:1055C0000968032900DC94E0052900DC93E03799A1
:1055D0004968C968914200D090E0279237990968DC
:1055E000032900DC8CE0052900DC8BE03799496851
:1055F000C96826918A4200DD87E027AA126894468E
:105600005A461268012A00DC81E0052A00DC80E0AD
:105610005A465268526803925A461268022A7CDD42
:10562000052A7CDD5A465268926890465A461268AE
:10563000032A78DD052A78DD5A465268D2681D9221
:1056400052461268012A74DD052A74DD52465268FA
:105650005268079252461268022A70DD052A70DDF0
:10566000524652689668379A1268012A6CDD052AFC
:105670006CDD379A526852681F92379A1268022A74
:1056800068DD052A68DD379A526892681E921D9A75
:1056900017994A43624563D11868052862DD5B6843
:1056A0000022012190425FDD9400E4586143013201
:1056B000F8E719F039FF19F037FF19F035FF19F045
:1056C00033FF19F031FF5A4652684CE719F02CFFAE
:1056D0003799496852E719F027FF19F025FF3799E4
:1056E00049685AE728AA5DE719F01EFF5246126979
:1056F00065E719F019FF379909696BE719F014FF8D
:1057000019F012FF3799096973E726AA76E719F0AD
:105710000BFF5A46926803927EE719F005FF5A463E
:10572000D268904682E719F0FFFE5A4612691D9230
:1057300086E719F0F9FE5246926807928AE719F057
:10574000F3FE5246D6688EE719F0EEFE379A92685D
:105750001F9292E719F0E8FE379AD2681E9296E7F8
:1057600019F0E2FE04339BE78C450ED1002306932B
:105770002C003D00C146D046B246069B219A93427A
:1057800000DBEAE100230D93D7E119F0CDFE19F01B
:10579000CBFE19F0C9FE19F0C7FE19F0C5FE19F0CD
:1057A000C3FE19F0C1FE19F0BFFE19F0BDFE19F0DD
:1057B000BBFE19F0B9FE0132AA426EDA390061432C
:1057C0004144019B534302981B18F4D45345F2DA29
:1057D0000029F0DB03988142EDDA5846006804287E
:1057E000D5D106980028D4DB5E467668B042D0DA80
:1057F0000029D0DB5846806881468142CBDA002BF5
:10580000CBDB5846C06809908342C6DA089E002E5A
:10581000C5DB58460069049004988642BFDA4846C2
:10582000069E704381464944099841435B18049998
:105830004B43089989464B440C99C95C63461B68E5
:10584000042BAED163465B68002BACDD002CACDBD7
:1058500063469B689C42A8DA002AA8DB6346DB68A3
:105860009A42A4DA05980028A3DB66463669B0425E
:105870009FDA6343D3187343059881464B443498A9
:10588000C35C0B9881464B440A988146494459436E
:10589000239B9946494423918DE7019E0298013448
:1058A000079B9C4203DA00220196029084E72C00B9
:1058B00035003E005B46D34667469A46369B002B32
:1058C00007D0059B9B00369A9B58239A94466344C5
:1058D00023932398159A131E00DAD6E0159A002A0E
:1058E00000DCD4E0002290469840149B834200D113
:1058F000D0E000230193C117149AD3170EF01AFEBB
:1059000002000B1E00DACFE08021C9051091C917F3
:1059100011911098119912184B41D9174900490853
:105920001291002113911298139912184B411100F2
:105930005B00CA0F13439946019B002B00D0B5E0D2
:105940004346002B00DAB4E01F2B00DDB8E0012055
:1059500098400138FCF7C9FB01900020FCF7C5FB1B
:1059600004900120FCF7C1FB029001994846FCF726
:10597000BDFB099001210198FCF7BAFB0190049945
:105980004846FCF7C2FB0299FCF7B0FB0100019806
:10599000FCF7B0FB019041464846FCF7A9FB804666
:1059A00001990998FCF7BAFB0299FCF79FFB0100EB
:1059B0004046FCF79FFB23901C9B9C466044239031
:1059C000259B984200DA82E023AB1B682393249A3C
:1059D00093427EDC23AB19682391379B1B680193AC
:1059E000042B78D1069B002B77DB379A5268019203
:1059F000934272DA0D9A002A71DB379B9B689A42B8
:105A00006DDA0E9A002A6CDB3798C06884468242B1
:105A100067DA059A002A66DB37980069824262DA03
:105A2000069A53430D9A90464344624653430E9A56
:105A3000944663444343059A94466344389AD15448
:105A40000F9B01330F930F9A16998A424DDA179BD9
:105A500008994B4394466344059318980E9B58430A
:105A60001A9BC01A199B0D9A53431B9A9B1A98466E
:105A7000002323939C465346DA463A0037002E0013
:105A80002500644694469B460AE7002326E75242D7
:105A9000904629E780231B06984202D000230193F9
:105AA00029E70123019326E72F492FE72F4B99463A
:105AB00046E7B3212E4B2F4A49002F480CF00AF835
:105AC00068212E4B2B4AFF312B480CF003F825ABF5
:105AD0007BE724AB7FE719F027FD19F025FD19F0CE
