:020000041000EA
:1000000000B5324B212058609868022188439860DF
:10001000D860186158612E4B002199600221596106
:100020000121F02299502B49196001219960352056
:1000300000F044F80222904214D00621196600F024
:1000400034F8196E01211966002018661A6600F04E
:100050002CF8196E196E196E052000F02FF8012189
:100060000842F9D1002199601B49196000215960AB
:100070001A491B48016001219960EB211966A021F2
:10008000196600F012F800219960164914480160C1
:100090000121996001BC002800D000471248134993
:1000A000086003C880F30888084703B5996A0420EC
:1000B0000142FBD001200142F8D103BD02B5186610
:1000C0001866FFF7F2FF186E186E02BD00000240BE
:1000D000000000180000070000035F00212200005C
:1000E000F4000018222000A00001001008ED00E03C
:1000F00000000000000000000000000074B24E7A12
:1001000000200420F7010010C3010010C5010010F9
:10011000C1010010C1010010C1010010C101001097
:10012000C1010010C1010010C1010010C701001081
:10013000C1010010C1010010C9010010CB01001065
:10014000CD010010CD010010CD010010CD01001037
:10015000CD010010CD010010CD010010CD01001027
:10016000CD010010CD010010CD010010CD01001017
:10017000CD010010CD010010CD010010CD01001007
:10018000CD010010CD010010CD010010CD010010F7
:10019000CD010010CD010010CD010010CD010010E7
:1001A000CD010010CD010010CD010010CD010010D7
:1001B000CD010010CD010010CD010010CD010010C7
:1001C00000BE00BE00BE00BE00BE00BE00F04BF888
:1001D000103800BEF2EB8871EC8107100C8207101A
:1001E0003402001090A31AE700202149086006C8D5
:1001F00081F3088810471F48006800282FD10DA4FC
:100200000ECC002902D000F012F8F9E71A491B4A77
:10021000002000E001C19142FCD1194988471949E9
:1002200088471949884700BEFDE701C901C29A42C3
:10023000FBD370470C820710C0000020C8250020A7
:1002400014A70710000004200000042014A70710C2
:1002500000100420001004200000000070470B482C
:1002600013F058F80047EFF30580C0B27047000064
:1002700008ED00E0000000D0C8250020B47A01207D
:10028000F117011045050010F9180110575600002C
:1002900006005250ABB3605390E80610060052506F
:1002A000861C0302A0E80610060052505422A29DAC
:1002B000C0E8061005005250DE65F46814A7071068
:1002C000F8B5C04610B5064C2378002B07D1054B76
:1002D000002B02D0044800E000BF0123237010BDB2
:1002E000D026002000000000981B0210044B10B51F
:1002F000002B03D00349044800E000BF10BDC046F6
:1003000000000000D4260020981B021010B5130036
:100310000A00024900F02EFD10BDC046981B0210D5
:1003200010B582B014F0B0FBFA24A400200010F045
:10033000A0FE17F06DFE184B00935023A022002161
:10034000002017F01AFF200010F093FE1348144B02
:1003500043600023037224220270124A1268C260B2
:10036000114A12680261114A12684261104A126809
:100370008261104A1268C2610F4A126802620F4A13
:1003800042628362C36217F023FC002017F0EAFE8A
:10039000002002B010BDC04608FE061018710120F2
:1003A000341D002090130020941300208C13002093
:1003B0009C13002098130020A01300200000205060
:1003C000F0B5DE4657464E464546E0B585B0814617
:1003D0000291039298460E9D0CF0F0FD00282CD05F
:1003E0000CF0F0FD04002900504817F061FA0CF001
:1003F000E9FD041B4E4B9C4224DD0CF0DFFDFA218D
:10040000890012F0B3FF0100200012F0AFFF00904E
:100410002300484A4849484600F0ACFC0CF0CEFDA9
:1004200000281CD00CF0CEFD83469020C00114F0B3
:1004300083F90400002000222DE04049484600F0E6
:1004400099FCCDE763011B1B9B001B19DB009A463F
:100450000CF0B4FD0100504612F088FFD7E7374991
:10046000484600F087FCDDE729560B02DB0ADB0279
:100470001BB2CF00FC26F6003E403343C9101F26B6
:1004800031400B439EB2360A511C89B2A654023247
:1004900092B26354013090239B019842E4DB0094B4
:1004A000602360220021002017F067FE002C02D09C
:1004B000200014F049F90CF085FD5B46C41A1C4B72
:1004C0009C421DDD0CF07AFDFA21890012F04EFFEE
:1004D0000100200012F04AFF00902300184A16493C
:1004E000484600F047FC0023039A02994A434146DC
:1004F0004A439A4211DDEA5C803AEA540133F3E759
:1005000063011B1B9B001B19DB009A460CF056FD78
:100510000100504612F02AFFDEE7002005B0F0BCD3
:10052000BB46B246A946A046F0BDC04618710120A0
:100530009BC42000DC1B0210EC1B0210BC1B021031
:10054000081C021010B500F0A5F900F09BF8FCE7BC
:100550000023036043608360704710B503685B69E4
:10056000984710BD10B503689B69984710BD0000FF
:10057000024B034A1A60034A1A607047B8120020FF
:1005800090D70610701D0210034B044A1A60044AEB
:100590001A60044A1A607047246B0120C81D0210BB
:1005A000A01D0210841D021010B5040020290CD0DB
:1005B0000022A423E358934209D95301E318181DDC
:1005C0009B698B4204D00132F3E7002000E0002059
:1005D00010BD0000034B0360034B0360034B03603B
:1005E0007047C046C81D0210A01D0210841D0210D5
:1005F000034B0360034B0360034B03607047C0462B
:10060000C81D0210A01D0210841D021010B5024862
:100610000BF05BFE10BDC046F06B012010B5C4238B
:10062000C458052C01D8002302E01FF00FFB013352
:100630009C4208D9C218A83212788A42F7D12C33CA
:100640009B00185800E0002010BDF8B505000E0012
:10065000002400E00134A423EB58A3420ED9630127
:10066000EB181F1D9B69202BF4D16301EB18D8698F
:10067000310020F047FB0028ECD100E000273800D3
:10068000F8BD000030B589B0D0231B06802292044B
:100690005A610CF093FC002800D18CE00CF092FC25
:1006A00004005E4B18685E4B1B681B6900930123B6
:1006B00060226021FFF784FE002800D081E00CF06A
:1006C00081FC041B574B9C4200DC80E00CF076FC64
:1006D000FA21890012F04AFE0100200012F046FEC5
:1006E00003004E4A1068009323004F4A4F4900F020
:1006F00041FBD0231B06802292049A610CF05EFC21
:10070000002800D170E00CF05DFC0400484B186834
:100710000CF0CEF9002800D06CE00CF053FC041B68
:10072000404B9C4200DC6BE00CF048FCFA21890055
:1007300012F01CFE0100200012F018FE0300374DDD
:100740002868009323003B4A384900F013FB384BDC
:10075000186800210BF038FF036901241C570022A0
:100760009A5621002868FFF7D1FD2000803013F051
:1007700001F90022304B13F085F800222F4B13F0C3
:1007800081F802000B002E4905A812F091FD2D4BB7
:1007900000220292FC22D20001925A6800921B6849
:1007A00005AA1E21652017F04DFC2868264900F097
:1007B000E1FA09B030BD194B1868244900F0DAFAA3
:1007C0006CE7164B1868224900F0D4FA77E7650108
:1007D0002D1BAD002D19ED000CF0F0FB01002800E1
:1007E00012F0C4FD03007CE70C4B1868174900F0B9
:1007F000C1FA88E7094B1868164900F0BBFA8CE784
:1008000065012D1BAD002D19ED000CF0D7FB01008B
:10081000280012F0ABFD030091E7C0461827002026
:100820001C2700209BC42000281C0210EC1B021077
:1008300004270020441C02100000703F00005940B3
:100840004C1C02103C1D0020541C0210BC1B02104A
:10085000101C0210341C0210704710B50068FFF71E
:10086000FBFF10BD704710B50068FFF7FBFF10BD20
:10087000704710B50088FFF7FBFF10BD10B50400EE
:100880000068FFF7E9FF201810BD10B5FFF7F6FF6D
:1008900010BD0000F0B58DB0B74B1B78BFF35B8F78
:1008A000DB0714D5B54BB64A1A60B648FFF7EDFF23
:1008B0000400B54B1860FFF7D6FF251A2800FFF794
:1008C000D8FF04280FD9281DFFF7D3FF0CE0AA4852
:1008D00017F0CAFC0028E5D0A74817F0E1FCAB48A8
:1008E0001FF0BCF9DEE70020002804D02018FFF735
:1008F000B4FF020000E00022032A06D00323A4492B
:100900009F4800F037FA0DB0F0BDA24B1B78BFF343
:100910005B8FDB0713D504A806F0F0FB9E48036845
:100920005B6901219847002823D09B4AC823D058EF
:10093000002840D00122994900F01CFA3BE095487C
:1009400017F092FC0028E6D0934B954A1A60954A1E
:100950001A60954A1A600022A4215A5020315A5038
:1009600004315A508B4817F09BFC90481FF076F9E1
:10097000D1E7894AA423D158042930D886484C01AC
:100980000419251D04AB2A00E0CBE0C2E0CBE0C295
:1009900060CB60C20125A5610131A423C150C421EF
:1009A0004358C218A83215701A002C329200804C9D
:1009B00014500133435004A802F038F87648036815
:1009C0005B6903219847002813D0734AC823D05885
:1009D000002830D00322714900F0CCF92BE02433F9
:1009E000D0580028E7D0C33B0122724900F0C2F979
:1009F000E1E7694AA423D158042930D866484C015C
:100A00000419251D04AB2A00E0CBE0C2E0CBE0C214
:100A100060CB60C20325A5610131A423C150C4216C
:100A20004358C218A83215701A002C329200624C3A
:100A300014500133435004A803F05AFF564803688A
:100A40005B6904219847002813D0534AC823D05823
:100A5000002833D00422514900F08CF92EE02433D1
:100A6000D0580028E7D0C33B0322524900F082F956
:100A7000E1E7494AA423D158042933D846484C0118
:100A800004239C460419251D04AB2A00E0CBE0C2D8
:100A9000E0CBE0C260CB60C26346A3610131A0330A
:100AA000C150C4214358C218A832644614701A00B9
:100AB0002C329200414C14500133435004A809F0E9
:100AC00027FB354803685B6916219847002813D037
:100AD000314AC823D058002830D016222F4900F0C0
:100AE00049F92BE02433D0580028E7D0C33B042237
:100AF000304900F03FF9E1E7274AA423D1580429FF
:100B000030D825484C010419251D04AB2A00E0CB40
:100B1000E0C2E0CBE0C260CB60C21625A561013126
:100B2000A423C150C4214358C218A83215701A001A
:100B30002C329200224C14500133435004A807F089
:100B400063FA154803685B6919219847002839D072
:100B5000114AC823D058002856D019220F4900F056
:100B600009F951E02433D0580028E7D0C33B1622BE
:100B7000104900F0FFF8E1E7F426002018270020D4
:100B8000B8120020E81D0210202700207105001077
:100B9000601C0210EC260020246B0120A81C02100F
:100BA000841D0210A01D0210C81D0210890500102E
:100BB000D5140010F81C0210C51200107D10001092
:100BC000250F00103A4AA423D15804293FD83848A9
:100BD0004C010419251D04AB2A00E0CBE0C2E0CB98
:100BE000E0C260CB60C21925A5610131A423C150C8
:100BF000C4214358C218A83215701A002C32920032
:100C00002C4C1450013343502B4B1B78BFF35B8F9C
:100C1000DB0726D529482A4B18600BF063FE002815
:100C20003AD1274B186800210BF010FC254B1860B7
:100C3000254B1868FFF774FB002833D119200FF0FB
:100C4000BDFCD0231B06802292045A625BE624334B
:100C5000D0580028D8D0C33B19221C4900F08AF88C
:100C6000D2E7154817F000FB0028D3D0184B1968BD
:100C700000230293144B1B680193A2235B02009391
:100C8000144B0B4A0D480BF0B3FB0B4817F008FB55
:100C900011481EF0E3FFBDE70B4B18680F4900F049
:100CA00069F830E6084B18680D4900F063F8C5E7AD
:100CB000246B0120F1160010F0260020F06B0120BB
:100CC000042700201C27002018270020F81C0210F1
:100CD00020270020242700200D0600103C1D0210B4
:100CE000581D021001308000704700000D281DD8EB
:100CF0008000104B1B589F460F4870470F48FCE779
:100D00000F48FAE70F48F8E70F48F6E70F48F4E70F
:100D10000F48F2E70F48F0E70F48EEE70F48ECE71F
:100D20000F48EAE70F48E8E70F48E6E70F48E4E72F
:100D30000F48E2E788B4061080B4061018B4061015
:100D400020B4061028B4061030B4061038B40610CB
:100D500040B4061048B4061050B406105CB4061037
:100D600068B4061070B4061078B4061000B406100B
:100D700010B406100EB400B582B003AA02CA0192E4
:100D800003689B68984702B008BC03B018470CB4CE
:100D900000B583B004AA02CA019203689B68984711
:100DA00003B008BC02B01847052803D88300024AE4
:100DB000D3589F4600207047C0B40610002803D0C7
:100DC000012803D1013070470120FCE70020FAE739
:100DD00010B5002806D0002906D0002A06D0002B26
:100DE00006D010BD1EF032FF1EF030FF1EF02EFFA9
:100DF0001EF02CFF10B513000C2836D883001F4AB4
:100E0000D3589F460A230B70002010BD01230B709E
:100E1000FBE70B230B700020F7E707230B70002084
:100E2000F3E702230B700020EFE703230B70002091
:100E3000EBE709230B700020E7E704230B70002089
:100E4000E3E70D230B700020DFE705230B70002084
:100E5000DBE706230B700020D7E708230B70002088
:100E6000D3E70C230B700020CFE700220A700200AA
:100E700003491800FFF77EFF0120C6E7FCB4061007
:100E8000D8B40610F0B5C64600B582B004000D0017
:100E90001700019300291AD00868FFF7DDFC06004F
:100EA000A008B0421AD30024B44225D2A300984629
:100EB000B8442868FFF7D0FC844216D22B1DA2004C
:100EC0009858FFF7CFFC434618600134ECE7089AC6
:100ED0000C491800FFF74EFF01200EE0089A0A495E
:100EE0000198FFF747FF012007E08321074B084ADD
:100EF0004900084810F004FD002002B080BCB8464C
:100F0000F0BDC04630B5061060B50610A4B5061099
:100F1000B0B5061080B60610704710B50078FFF720
:100F2000FBFF10BDF0B5C64600B584B004000F004D
:100F300015001E00FFF74CFF2B681B6804222421BC
:100F40002800984780462422002113F0E9FB0295EF
:100F5000434603934546002B0ED02000FFF783FC49
:100F6000231A98461800FFF784FC0A2811D9404636
:100F70000A30FFF77EFC0DE0384B0193B723DB000E
:100F80000093374B374A39003800FFF700FF01352F
:100F900051E00020002803D02018FFF7BEFF00E03A
:100FA0000020112819D12000FFF75DFC231A984674
:100FB0001800FFF75EFC0C2804D940460C30FFF700
:100FC00058FC00E000202418002804D02000FFF77F
:100FD00044FC241802E0002400E00024002C25D06A
:100FE000A0462000FFF73FFC241A2000FFF741FC39
:100FF00004282ED9201DFFF73CFC43461C1800286E
:1010000029D02000FFF729FC2418002C0ED0164B05
:1010100000933B002A0021002020FFF733FF051E2C
:1010200009D12068FFF718FC039B1862039B33600B
:101030000023039300250399002903D00298036835
:101040005B68984700230393280004B080BCB8462F
:10105000F0BD0020D1E70024D7E7C04618B706103E
:10106000C4B6061000B706102CB70610704710B5AE
:10107000007840B2FFF7FAFF10BD0000F0B5C64699
:1010800000B584B00400884615001E00FFF7A0FEDE
:101090002B681B6804221C212800984707001C228B
:1010A000002113F03DFB02950397002F0DD0200087
:1010B000FFF7D9FB251A2800FFF7DBFB0A2810D918
:1010C00028000A30FFF7D5FB0CE07A4B01937A4BEE
:1010D00000937A4B7A4A41464046FFF758FE012476
:1010E000BDE00020002803D02018FFF716FF00E025
:1010F0000020022818D12000FFF7B5FB251A280090
:10110000FFF7B7FB0C2804D928000C30FFF7B1FB20
:1011100000E000202418002804D02000FFF79DFBE9
:10112000241802E0002400E00024002C00D191E00B
:1011300025002000FFF797FB241A2000FFF799FBFA
:10114000042800D899E0201DFFF793FB002800D168
:1011500095E02818FFF78BFFC0B2FFF72FFE38701D
:10116000039F2800FFF77FFB2C1A2000FFF781FB6D
:10117000062800D885E0A01DFFF77BFB002800D1E2
:1011800081E02818FFF76FFB7860039C2800FFF7C9
:101190006AFB2F1A3800FFF76CFB082800D874E0B0
:1011A00038000830FFF765FB002800D16FE02818F1
:1011B000FFF759FBA0602800FFF755FB2F1A3800F6
:1011C000FFF757FB0A2864D938000A30FFF751FBB4
:1011D000002860D02818FFF746FBE0602800FFF7E2
:1011E00042FB2F1A3800FFF744FB0C2855D9380072
:1011F0000C30FFF73EFB002851D02818FFF737FFCF
:10120000C0B2FFF7D1FD20742800FFF72CFB2F1A86
:101210003800FFF72EFB0E2843D938000E30FFF7B9
:1012200028FB00283FD02818FFF71DFB606128002D
:10123000FFF719FB2F1A3800FFF71BFB102834D9D2
:1012400038001030FFF715FB002830D02818FFF7C2
:101250000AFBA061039B33600023039300240399DE
:10126000002903D0029803685B6898470023039322
:10127000200004B080BCB846F0BD002066E7002026
:101280006AE700207AE700207EE700208CE7002054
:1012900090E700209CE700209FE70020ABE70020BC
:1012A000AEE70020BDE70120C0E70020CCE7012029
:1012B000CFE7C04618B7061023040000C4B60610D6
:1012C00000B70610F0B5C64600B584B004008846E5
:1012D00015001E00FFF77CFD2B681B6804221821F7
:1012E0002800984707001822002113F019FA0295E8
:1012F0000397002F0DD02000FFF7B5FA251A28001C
:10130000FFF7B7FA0A2810D928000A30FFF7B1FA18
:101310000CE06C4B01936C4B00936C4B6C4A414658
:101320004046FFF734FD0124A6E00020002803D04A
:101330002018FFF7F2FD00E00020012818D120005E
:10134000FFF791FA251A2800FFF793FA0C2804D921
:1013500028000C30FFF78DFA00E000202418002848
:1013600004D02000FFF779FA241802E0002400E0FE
:101370000024002C7BD025002000FFF774FA241AEB
:101380002000FFF776FA042800D883E0201DFFF73D
:1013900070FA002800D17FE02818FFF768FEC0B27D
:1013A000FFF70CFD3870039F2800FFF75CFA2C1A3A
:1013B0002000FFF75EFA062800D86FE0A01DFFF7B7
:1013C00058FA00286CD02818FFF74DFA7860039F70
:1013D0002800FFF748FA2C1A2000FFF74AFA0828DD
:1013E00060D920000830FFF744FA00285CD02818A4
:1013F000FFF739FAB8602800FFF735FA2C1A2000F9
:10140000FFF737FA0A2851D920000A30FFF731FADE
:1014100000284DD02818FFF72AFEC0B2FFF7C4FC01
:1014200038732800FFF71FFA2C1A2000FFF721FA63
:101430000C283FD920000C30FFF71BFA00283BD0C6
:101440002818FFF710FA38612800FFF70CFA2C1A59
:101450002000FFF70EFA0E2830D920000E30FFF7DB
:1014600008FA00282CD02818FFF7FDF97861039BB3
:1014700033600023039300240399002903D00298CA
:1014800003685B68984700230393200004B080BC86
:10149000B846F0BD00207CE7002080E7002090E700
:1014A000002093E70020A0E70020A3E70020AFE79B
:1014B0000020B2E70020C1E70120C4E70020D0E708
:1014C0000120D3E718B70610F9030000C4B60610D0
:1014D00000B70610F0B5C64600B584B004008846D3
:1014E00015001E00FFF774FC2B681B6804222821DE
:1014F0002800984707002822002113F011F90295CF
:101500000397002F0DD02000FFF7ADF9251A280012
:10151000FFF7AFF90A2810D928000A30FFF7A9F918
:101520000CE06C4B01936C4B00936C4B6C4A414646
:101530004046FFF72CFC0124A6E00020002803D041
:101540002018FFF7EAFC00E00020052818D1200051
:10155000FFF789F9251A2800FFF78BF90C2804D921
:1015600028000C30FFF785F900E00020241800283F
:1015700004D02000FFF771F9241802E0002400E0F5
:101580000024002C7BD025002000FFF76CF9241AE2
:101590002000FFF76EF9042800D883E0201DFFF734
:1015A00068F9002800D17FE02818FFF760FDC0B27D
:1015B000FFF704FC3870039F2800FFF754F92C1A3A
:1015C0002000FFF756F9062800D86FE0A01DFFF7AE
:1015D00050F900286CD02818FFF745F97860039F70
:1015E0002800FFF740F92C1A2000FFF742F90828DD
:1015F00060D920000830FFF73CF900285CD028189B
:10160000FFF731F9B8602800FFF72DF92C1A2000F8
:10161000FFF72FF90A2851D920000A30FFF729F9DE
:1016200000284DD02818FFF71EF9F8602800FFF7B2
:101630001AF92C1A2000FFF71CF90C2842D92000B7
:101640000C30FFF716F900283ED02818FFF70BF9E9
:1016500038612800FFF707F92C1A2000FFF709F975
:101660000E2833D920000E30FFF703F900282FD0C1
:101670002818FFF7FCFCC0B2FFF796FB3875039BF8
:1016800033600023039300240399002903D00298B8
:1016900003685B68984700230393200004B080BC74
:1016A000B846F0BD00207CE7002080E7002090E7EE
:1016B000002093E70020A0E70020A3E70020AFE789
:1016C0000020B2E70020BEE70020C1E70020CDE700
:1016D0000020D0E718B706105E050000C4B606105B
:1016E00000B70610704710B50068FFF7FBFF10BD8C
:1016F000F0B5C64600B584B00400884615001E004B
:10170000FFF766FB2B681B6804220421280098471A
:101710000023036002950390071E0DD02000FFF701
:10172000A2F8251A2800FFF7A4F80A2810D92800E3
:101730000A30FFF79EF80CE02D4B01932D4B0093E0
:101740002D4B2E4A41464046FFF721FB01243DE048
:101750000020002803D02018FFF7DFFB00E0002066
:10176000092818D12000FFF77EF8251A2800FFF776
:1017700080F80C2804D928000C30FFF77AF800E034
:1017800000202418002804D02000FFF766F8241851
:1017900002E0002400E00024002C12D025002000EC
:1017A000FFF761F8241A2000FFF763F804281BD91B
:1017B000201DFFF75EF8002818D02818FFF793FFC8
:1017C0003860039B336000230393002403990029AE
:1017D00003D0029803685B689847002303932000B6
:1017E00004B080BCB846F0BD0020E4E70020E7E785
:1017F00018B7061041060000C4B6061000B7061060
:10180000F0B5CE4600B582B004000D0001921F0075
:1018100000233B600BF0A7FC009006002000FFF7C0
:1018200022F8231A99461800FFF723F8082804D94C
:1018300048460830FFF71DF800E00020002804D0DB
:101840002018FFF710F8814601E001239946832E06
:101850000FD8202E1FD02B681B684A4600992800FD
:101860009847386000280BD0002002B080BCB946F1
:10187000F0BD009A1E490198FFF77CFA0120F4E7B9
:10188000009B9E001B4B9A594B461B490198FFF742
:1018900071FA0120E9E72000FEF7E5FF261A300083
:1018A000FEF7E7FF062816D9B01DFEF7E2FF241861
:1018B000002812D02000FEF7D0FF2418002C0ED0F4
:1018C000211D2B685B684A4628009847386000282D
:1018D0000BD00020C9E70020E9E70024EEE7074924
:1018E0000198FFF747FA0120BFE70120BDE7C04696
:1018F00034B70610F4BD061088B70610C0B706103E
:10190000F0B583B004000D0017001E000022002374
:1019100011F0FAFF002804D000233B60336003B0CD
:10192000F0BD32002000290020F006F900221D4BF6
:1019300011F0A8FF12F006F912F070F804000D1E65
:1019400014DC00290ED080231B069C4210D0002DF1
:1019500026DC21D033681F3302DA002333600024F1
:101960003C60DCE780231B069842ECD91EF06EF940
:10197000002DECD1EA0F002312196B411C0013005B
:10198000E10700930194520811430C00019B5D1084
:10199000336801333360DAE780231B069C42D9D3D6
:1019A0001EF054F90000E041F8B506000F001500E4
:1019B0001C000022094B11F0C5FF002809D02300AC
:1019C0002A0030003900FFF79BFF2368002B02DB61
:1019D000F8BD1EF03BF91EF039F9C0460000F03F9B
:1019E00030B585B011F04EFF04000D0080200006D8
:1019F000089BD84011F0BEFF22002B0011F042FFDF
:101A000000900191094A0A4B0292039311F09AFF48
:101A1000002808D16B46186859680A9B099AFFF795
:101A2000C3FF05B030BD02ABF5E7C0460000C0FF04
:101A3000FFFFDF41F0B5C64600B503000C000120F2
:101A400098400138D21A20235B42D3182BD40125A9
:101A50009D4001239340984611F08CFF06000F0033
:101A60004046290011F0CEFF02000B003000390083
:101A700011F008FF06000F0020235B42E31817D483
:101A8000012199400120A04011F0BCFF02000B0091
:101A90003000390011F0EDFE12F0A2F811F082FFD3
:101AA00080BCB846F0BD20239B1A0125DD40D0E75D
:101AB00020231B1B0121D940E4E7000030B58BB087
:101AC000019100929D68DC680395049401280AD076
:101AD000032820D0022845D00E9B019A1A600F9B44
:101AE000009A1A6013E0291C002012F060FC12F02A
:101AF0009BFD12F0CFFC24180594019BA34208DB48
:101B000001AB1B680E9A13600F9B009A1A600BB012
:101B100030BD05ABF5E7291C002012F048FC12F09F
:101B200083FD12F0B7FC20180690019B834215DB61
:101B300001AB1B680E9A1360291C1E4812F037FC7B
:101B400012F072FD12F0A6FC24180794009BA34229
:101B500006DC6B461B680F9A1360D8E706ABE8E714
:101B600007ABF7E7291C144812F021FC12F05CFDCA
:101B700012F090FC20180890019B834216DB01AB09
:101B80001B680E9A1360291CFE20800512F00FFCC2
:101B900012F04AFD12F07EFC24180994009BA34227
:101BA00006DC6B461B680F9A1360B0E708ABE7E7EB
:101BB00009ABF7E70000C040000080BF10B50B681C
:101BC00002CB002A10DB8A4210DA920099584B1C93
:101BD0000ED000290EDB8368002B02D048011818B4
:101BE00010BD036D9847FBE70020F9E70020F7E7F9
:101BF0000020F5E70020F3E710B54B6802CB002A80
:101C000010DB914210DD920099584B1C0ED0002938
:101C10000EDB8368002B02D04801181810BD036D3D
:101C20009847FBE70020F9E70020F7E70020F5E7F9
:101C30000020F3E710B5FFF7C1FF10BDF0B5C646B1
:101C400000B582B080461D008868916812F0B4FB30
:101C5000041C12F059FC06000F000021201C12F099
:101C6000E9FB002810D0A86812F04EFC02000B001F
:101C70003000390011F0FDFD089B1860596000200C
:101C800002B080BCB846F0BD43465C69A123044A5B
:101C900000925B00034A04494046A0470120EFE759
:101CA00038C0061008C0061000B70610F0B5C646CA
:101CB00000B584B080460D0016001C000A9F88689D
:101CC00012F022FC02900391B06812F01DFC020099
:101CD0000B000298039911F0D5FD02900391002C9E
:101CE0001AD0A06812F010FC02000B0002980399B1
:101CF00011F0ADFD02904C006408B86812F004FCCD
:101D000002000B000298210011F0B3FD0E4A0F4BA8
:101D100011F008FE00280BD00B9B00933B00320013
:101D200029004046FFF78AFF04B080BCB846F0BDEA
:101D300043465C693623064A0092FF33054A06494A
:101D40004046A0470120EFE77B14AE47E17A943F7D
:101D500054C0061008C0061000B7061030B583B096
:101D60000D001400127F032A0DD0092A0ED0072A75
:101D700019D0446976230D4A0092FF330C4A0D496D
:101D8000A04701200DE0FF22002102E07F228021F8
:101D9000494206980190009323002800FFF78EFE29
:101DA000002003B030BD044A0449F2E778C00610B1
:101DB00008C0061000B70610FF7F00000080FFFF7C
:101DC000F0B5DE4657464E464546E0B58DB00400B8
:101DD0000D00049205930E78012E14D0456901235D
:101DE000039302967D4B01937D4B0093D1237D4A53
:101DF0007D49A847012630000DB0F0BCBB46B24675
:101E0000A946A046F0BD049B1F78012F0CD0456960
:101E1000012303930297714B0193744B0093D323D7
:101E2000704A7149A847E6E7049B5B68002B15D010
:101E30001A689146002A1AD012689346012A5DDD7D
:101E40000A7F092A1CD0072A1AD04569684B0093DB
:101E5000E323644A6749A8473E00CCE74569664BDF
:101E60000093DE235F4A6349A8473E00C3E7456904
:101E7000624B0093DF235B4A5E49A8473E00BAE706
:101E8000049A127F092A0ED06569092303930292EE
:101E90005B4B01935B4B0093E523524A5249200070
:101EA000A8473E00A7E71E9A93450ED065690392A6
:101EB0005B460293544B0193544B0093E623494AEB
:101EC00049492000A8473E0095E7049A52690692C6
:101ED0009B689B00944663445B681E9A93420DD0B6
:101EE0006569039302924A4B0193474B0093E723A2
:101EF0003C4A3D492000A8473E007CE7AB6806937A
:101F0000169B9B689A464B460433079300235F4613
:101F10001E00A346A84623E04B46586812F0F4FA88
:101F200004000D00069812F0EFFA22002B0011F0C9
:101F3000A9FC04000D00504612F0E6FA02000B0066
:101F40002000290011F095FC0AAB09AAFFF7D8FC84
:101F5000B3001C9A0999D1501D9A0A99D1500136A3
:101F60001E9B9E4205DA012FD6DDB300079AD0589A
:101F7000D4E75C4645462B7F032B08D02B7F092BEB
:101F800021D0032B1FD0072B1DD0002633E70022C2
:101F900000230A920B930AAB0193169B0093059BB7
:101FA000049A41465846FFF781FE061E00D022E7FC
:101FB00009AB189A0A980B99FFF7A2FC099B5B42A0
:101FC000199A1360DAE7179B19781B9B00931A9BE9
:101FD000169A2000FFF7C2FE06000CE79CC0061010
:101FE000B8C0061008C0061080C00610D4C0061085
:101FF00020C1061000B70610F0C0061004C106107C
:102000005CC1061068C1061078C1061088C10610B0
:10201000ACC1061010B5002801D0006810BD1DF03D
:1020200015FE002800D00068704710B5002801D0C8
:10203000006810BD1DF00AFE002800D0006870473F
:1020400010B5002801D0006810BD1DF0FFFD00286C
:1020500000D00068704770470840704708417047DB
:1020600040187047C043704710B5002802D00020C8
:10207000FFF7F8FF10BD10B50123884200DB0023F5
:102080001800FFF7F1FF10BD10B50123884200DCF6
:1020900000231800FFF7E8FF10BD10B5002801D09D
:1020A000006810BD1DF0D2FD012808D003280BD018
:1020B00002280ED00A4B0B600A4B136003E000238A
:1020C0000B60084B1360704700230B60064B1360D6
:1020D000F9E7064B0B60FE239B051360F3E7C04650
:1020E000FFFF7FFFFFFF7F7F0000C040000080BF39
:1020F00010B5836B002B02D03821984710BD1DF01E
:10210000A5FD0000F0B5DE4657464E464546E0B513
:1021100093B005000C0016001F0021AB1B780B9339
:102120000B681B68032B0AD0022B08D04469674B4D
:1021300000935723664A6749A047012011E063686E
:102140001B68012B14D06C69012203920293624B2D
:102150000193624B009358235D4A61492800A047D0
:10216000012013B0F0BCBB46B246A946A046F0BD64
:1021700033789846B3689A467368994673699B4664
:1021800033690D931D9A501E584301304346012B6D
:102190003FD0022B46D000230C931E9B581E5B465B
:1021A000584301304346012B44D0022B4AD0002033
:1021B0001E9B013B5A46534301330138524650435C
:1021C0001B181C9A9B1A44D401211940DA0FD3180A
:1021D0005B100F9311911D9B013B0D9A53430133EB
:1021E0000C9801384A4650431B18DB1B33D401219D
:1021F0001940DA0FD3185B100EAA0E931091229B90
:1022000083CA83C312681A600B9B012B25D100205F
:10221000A7E73B004B4418000138494611F0A6F8E7
:102220000C90BAE73B004B44181A494611F09EF84F
:102230000C90B2E71C9B534418000138514611F032
:1022400095F8B5E71C9B5344181A514611F08EF8C7
:10225000AEE70023B8E70023C9E7002221002800E9
:10226000FFF7ACFC8046012221002800FFF7A6FC06
:102270000700022221002800FFF7DCFC8146002233
:1022800021002800FFF7B8FC7B695B680C36229AB6
:10229000926A0B9208930792229B5B6A0B930693B8
:1022A000229B30330593229B2C330493229B2033B3
:1022B0000393229C1C340294019600904B463A00F2
:1022C00041462800FFF77CFD4BE7C04624C20610BC
:1022D000ECC1061000B70610F4C6061048C206107E
:1022E00080C00610F0B5DE4657464E464546E0B57E
:1022F000AFB004000D008E68002E21D0CB689A4646
:10230000002B1FD00022FFF759FC070001222900F3
:102310002000FFF753FC8146002229002000FFF730
:102320006BFC8046002F0FD0796904C900232693E7
:102330002692052A0BDC269B052B0ADD279809E04F
:102340001DF084FC1DF082FC0023269305E01DF0A7
:102350007DFC27A8920012F0E9F94346002B0BD030
:10236000596904C9002320932092052A06DC209B8A
:10237000052B05DD219804E0209305E01DF066FCA7
:1023800021A8920012F0D2F9269B002B00DC96E0E7
:10239000052B00DC95E0279B1B68209A002A00DCB7
:1023A00091E0052A00DC90E0219A12689A4200D060
:1023B0008DE02D93209A002A00DC8AE0052A00DCBB
:1023C00089E0219A12682C92934200DD85E02DABC2
:1023D00019681C917B699A681D92DB6808931E93AB
:1023E000269B032B00DC7AE0052B00DC79E0279BA1
:1023F000DA681F92209B032B00DC74E0052B00DCC5
:1024000073E0219BDB6818934B465B6998681990D1
:10241000D8681A901B92149142465269916815919E
:10242000D26808921692209A032A60DD052A60DDA0
:10243000219AD26817925B689B009B461900200086
:10244000A36B9847706259462000A36B9847B0620F
:102450001E9B08931D9A09921A9A19991698159B12
:102460009C463B7F06960593634604930390029136
:102470000192099A0092089B524629002000FFF71A
:1024800041FE051E0DD1FB6833614B46DB6873616D
:102490004346DB68B3613A7F092A2CD001235B42B3
:1024A0007363209B052B4EDC269B052B4DDC2800FF
:1024B0002FB0F0BCBB46B246A946A046F0BD1DF009
:1024C000C5FB279B69E71DF0C1FB219A6EE71DF054
:1024D000BDFB1DF0BBFB219A75E72CAB78E71DF027
:1024E000B5FB2A9A85E71DF0B1FB249B8BE71DF015
:1024F000ADFB249A9EE7FA6852420A920B93534628
:102500009B680D9353465B680C9353465B6911932C
:1025100053461B690893109373680F9333680E93A7
:10252000F36A1293336B139314AB18AA1CA90AA86D
:102530000BF05FF8011EB1DD236C32003432200055
:1025400098470500ADE71DF081FB1DF07FFBF0B55E
:10255000DE4657464E464546E0B5A3B00F0003920F
:102560009B462D9B0A21425E13920C21425E1492DF
:102570000E21425E05921021425E0A920221425EC5
:1025800015920421425E1692026B1092426B0E92DB
:102590003A68042A00D080E05A461268042A7ED1A4
:1025A0002F9A12680092042A7BD13A68002A7ADDB9
:1025B000052A7ADD7A6812682F990968002976DD84
:1025C000052976DD2F9949680968914274D12192D5
:1025D0002F990968002971DD052971DD2F99496856
:1025E000096820918A426EDC21AA126817923A6823
:1025F000032A6ADD052A6ADD7A68D26859460968C5
:10260000032966DD052966DD59464968C968914296
:1026100064D11F9259460968032961DD052961DDEE
:1026200059464968C9681E918A425EDC1FAA126831
:1026300002925A461268002A59DD052A59DD5A4687
:10264000526812682F990968032955DD052955DD5F
:102650002F994968C968914253D11D922F990968F1
:10266000032950DD052950DD2F994968C9681C915F
:102670008A424DDC1DAA12680F922E9A002A4ED073
:102680001868052846DD5B6800220121904243DD81
:102690009400E45861430132F8E71DF0D7FA1DF0C9
:1026A000D5FA1DF0D3FA1DF0D1FA7A6884E71DF04F
:1026B000CDFA2F99496888E71DF0C8FA1DF0C6FACF
:1026C0002F9949688DE720AA8FE71DF0BFFA3A6974
:1026D00094E71DF0BBFA5946096998E71DF0B6FA70
:1026E0001DF0B4FA594609699DE71EAA9FE71DF03F
:1026F000ADFA5A465268A5E71DF0A8FA2F99096964
:10270000A9E71DF0A3FA1DF0A1FA2F990969AEE718
:102710001CAAB0E70433B7E70F9B8B423AD13B6862
:10272000012B39DD052B39DD7B685B6808933B683D
:10273000022B36DD052B36DD7B689B6807935B46F5
:102740001B68012B32DD052B32DD5B465B685B6865
:1027500009935B461B68022B2EDD052B2EDD5B46A5
:102760005B689B6804932F9B1B68012B2ADD052B5C
:102770002ADD2F9B5B685B6812932F9B1B68022BE3
:1027800026DD052B26DD2F9B5B689B6811930023BC
:1027900000933DE11DF05AFA1DF058FABB6808930A
:1027A000C5E71DF053FAFB680793C8E71DF04EFA22
:1027B0005B469B680993CCE71DF048FA5B46DB68F3
:1027C0000493D0E71DF042FA2F9B9B681293D4E745
:1027D0001DF03CFA2F9BDB681193D8E71DF036FA09
:1027E0001DF034FA1DF032FA1DF030FA1DF02EFA09
:1027F0001DF02CFA1DF02AFA1DF028FA1DF026FA19
:102800001DF024FA4346B046AB461E000136049B39
:102810009E4266DA059D7543069BED18F6D4079B2C
:102820009D42F3DA4B46002BF0DB089B9945EDDA2D
:102830000024320046465B46AB461D009046029B94
:102840009C42DFDA3B68042BC8D1009B002BC7DB1E
:102850007A689342C4DA4B46002BC3DBBB689945C8
:10286000C0DA5A46002ABFDBF9688B45BCDA002C77
:10287000BCDB3A699442B9DA009843434B444B437A
:102880005B445343E3189B00039A98582B68042B2E
:10289000AED1002EAEDB6B689E42ABDA5346002B06
:1028A000AADBAB689A45A7DA4246002AA6DBE968AC
:1028B0008845A3DA002CA3DB2A699442A0DA73438B
:1028C00053444B4343445343E3189B002C9A995879
:1028D00011F072FD011C019811F064FD01900134AA
:1028E000ADE701239C46E244099B9A4507DA0A9B1F
:1028F000524653430B9A91469944002687E72E9BF4
:10290000002B54D043469B002E9AD158019811F0C9
:1029100049FD2F9B1B680193042B4AD1009B002B80
:1029200049DB2F9A52680192934244DA0C9B002BA8
:1029300043DB2F9A9568AB423FDA0D9B002B3EDBC1
:102940002F9AD1688B423ADA4346002B39DB2F9B12
:102950001A69904535DA009B5D430C9B9C466544A3
:102960004D430D9B9C46654455434544AD00309B0B
:102970009C466544199010991A910E9B1B9311F077
:1029800053FD00281FD119AC21680E9811F04CFDA1
:1029900000281AD123682B6001239C46E0440F9B3A
:1029A000984514DA00239A46002301939CE70021FE
:1029B000ACE71DF04BF91DF049F91DF047F91DF08A
:1029C00045F91DF043F91AACDEE71BACE2E70D9BBD
:1029D00001330D930D9A11998A4207DA139B5343E1
:1029E000159A9B1A069300239846D8E70C9B01334F
:1029F0000C930C9A12998A4207DA149B5343169A45
:102A00009B1A0B9300230D93E4E7009B0133009383
:102A1000009B179A934202DA00230C93E9E723B054
:102A2000F0BCBB46B246A946A046F0BD30B5044B4B
:102A3000020032CB32C232CB32C212CB12C230BD14
:102A4000ACC30610F0B5DE4657464E464546E0B5E7
:102A5000B7B015001E00107B16AA17A9FFF724FBBC
:102A60002B78012B02D0022B00D0002308AC23705E
:102A7000336863807368A3806B686381AB68A381EC
:102A80002B69E3816B692382179B1493169B159323
:102A9000409918A807F0CFF94098FFF7BBFA814694
:102AA00041991EA807F0C7F94198FFF7B3FA82468B
:102AB00024AD4299280007F0BEF94298FFF7AAFA20
:102AC00083462AAE4599300007F0B5F94598FFF7DF
:102AD000A8FA804630AF4399380007F0ACF9439824
:102AE000FFF79FFA069005974346049303965B46CB
:102AF00002930195534600931EAB4A4618A9200045
:102B0000FFF725FD309B052B13DC2A9B052B12DCE0
:102B1000249B052B11DC1E9B052B10DC189B052B21
:102B20000FDC002037B0F0BCBB46B246A946A04639
:102B3000F0BD1DF08BF81DF089F81DF087F81DF031
:102B400085F81DF083F80000F0B5DE4657464E4686
:102B50004546E0B5A7B0139114921E00319D339BFA
:102B6000426902920A21425E17920C21425E18923B
:102B70000E21425E04921021425E09920221425EC1
:102B800019920421425E1A92C2691292816A1F91BF
:102B9000C26A1E92914276DC3268042A75D12A6894
:102BA000042A74D1359A12680092042A71D13268CD
:102BB000002A70DD052A70DD72681268359909688F
:102BC00000296CDD05296CDD359949680968914259
:102BD0006AD1259235990968002967DD052967DDE5
:102BE00035994968096824918A4264DC25AA1268EB
:102BF0001B923268032A60DD052A60DD7268D268A4
:102C0000296803295DDD05295DDD6968C968914290
:102C10005BD123922968032959DD052959DD6968AB
:102C2000C96822918A4256DC23AA126801922A6856
:102C3000002A52DD052A52DD6A6812683599096852
:102C400003294EDD05294EDD35994968C968914251
:102C50004CD1219235990968032949DD052949DDBF
:102C600035994968C96820918A4246DC21AA1268D0
:102C70001192349A002A4DD0186805283FDD5B6810
:102C80000022012141E01CF0E1FF1CF0DFFF1CF0FD
:102C9000DDFF1CF0DBFF1CF0D9FF72688EE71CF033
:102CA000D5FF3599496892E71CF0D0FF1CF0CEFFA4
:102CB0003599496897E724AA99E71CF0C7FF32695C
:102CC0009EE71CF0C3FF2969A1E71CF0BFFF1CF0C1
:102CD000BDFF2969A5E722AAA7E71CF0B7FF6A682C
:102CE000ACE71CF0B3FF35990969B0E71CF0AEFF03
:102CF0001CF0ACFF35990969B5E720AAB7E70433A2
:102D0000BEE79400E458614301329042F9DC119B24
:102D10008B4238D13368012B37DD052B37DD7368E3
:102D20005B6807933368022B34DD052B34DD736851
:102D30009B6806932B68012B31DD052B31DD6B6819
:102D40005B6808932B68022B2EDD052B2EDD6B684C
:102D50009B680393359B1B68012B2ADD052B2ADD1D
:102D6000359B5B685B681693359B1B68022B26DDE1
:102D7000052B26DD359B5B689B6815930027330088
:102D80003E001F00D6E11CF061FF1CF05FFFB3683E
:102D90000793C7E71CF05AFFF3680693CAE71CF0D5
:102DA00055FFAB680893CDE71CF050FFEB68039329
:102DB000D0E71CF04BFF359B9B681693D4E71CF0C3
:102DC00045FF359BDB681593D8E71CF03FFF1CF0EF
:102DD0003DFF1CF03BFF1CF039FF1CF037FF1CF0DF
:102DE00035FF1CF033FF1CF031FF1CF02FFF1CF0EF
:102DF0002DFFB146464680466046009B9C4601300A
:102E0000039B98426BDA04994143059BC918F6D499
:102E1000069B9942F3DA002EF1DB079B9E42EEDA25
:102E200000220B006146009184464046B0464E4663
:102E30009946019B9A42DCDA3B68042BC5D1009984
:102E40000029C4DB7B689942C1DA4346002BC0DB12
:102E5000BB689845BDDA4C46002CBCDBFC68A2463A
:102E6000A145B8DA002AB8DB3C69A242B5DA00997C
:102E70004B43434451464B434B446343D31830992F
:102E8000CC562B68042BAAD10028AADB6B68984289
:102E9000A7DA002EA7DBAB689E42A4DA61460029C0
:102EA000A3DBE9688B468C459FDA002A9FDB296902
:102EB0008A468A429BDA4343F31859464B4363449C
:102EC00051464B43D3183299CB5602998A46544403
:102ED0005C431D9B9A4654441D940132A9E701238B
:102EE0009A46D144089B994507DA099E4B465E43B2
:102EF0000E9B9A465644002082E76646444631952A
:102F0000349B002B06D0A300349A9B581D9A9446FC
:102F100063441D931D98A300139AD2581499CB585B
:102F2000191E00DAB1E0002B00DCB0E000239A4665
:102F30008840824200D1ADE000239846C117D317E4
:102F400011F00EFA02000B1E00DAADE08021C90577
:102F50000A91C9170B910A980B9912184B41D9176E
:102F6000490049080C9100210D910C980D991218F7
:102F70004B4111005B00CA0F134399464346002B97
:102F800000D093E05346002B00DA92E01F2B00DDC7
:102F900096E0012098400138FFF75DF88046002058
:102FA000FFF759F800900120FFF755F88346414696
:102FB0004846FFF751F8050001214046FFF74EF85B
:102FC000804600994846FFF756F85946FFF744F8FF
:102FD00001004046FFF744F8804651464846FFF757
:102FE0003DF8814641462800FFF74EF85946FFF765
:102FF00033F801004846FFF733F81D90129B9C46BA
:1030000060441D901F9B984261DB1DAB1B681D93A4
:103010001E9A93425DDC1DAB1A681D92359B1B689E
:103020000093042B57D1002E57DB359B5B68009330
:103030009E4252DA0F99002951DB359B9B689942D9
:103040004DDA109900294CDB3598C068814248DA86
:10305000002C48DB359909698C4244DA73430F9D93
:10306000AC46634443431098844663444B43E3189F
:103070003699CA540134119B9C4236DA00231D93C1
:103080009946B446A046319D2CE700214BE75B42B0
:103090009A464DE780231B06984202D000239846AB
:1030A0004CE70123984649E7294951E7294B9946BE
:1030B00068E7B321284B294A490029480EF020FC33
:1030C0006821284B254AFF3125480EF019FC1FAB1B
:1030D0009CE71EABA0E71CF0B9FD1CF0B7FD1CF08F
:1030E000B5FD1CF0B3FD1CF0B1FDB346319D109B46
:1030F00001331093109A15998A4209DA179B5343AA
:10310000199A9B1A059300235E461C003195B2E77D
:103110005E460F9B01330F930F9A16998A4208DA85
:10312000189B53431A9A9B1A0E9300231093B3468D
:10313000E0E701361B9B9E4202DA00230F93EBE788
:1031400027B0F0BCBB46B246A946A046F0BDC0467B
:10315000010000C0FFFFFF7F5CC206106CC20610BA
:10316000C8C20610FCC20610F0B5DE4657464E46F1
:103170004546E0B5E7B004001D0053694593166964
:103180004496012B01D1012E63D02B695B4230ACF8
:103190006361AB69E3619368A38153686381536999
:1031A00023821369E3816B68A3802B686380EB6AD9
:1031B000A3622B6BE3626B6A9A46AB6A9B4670997B
:1031C00048A806F038FE7098FEF72FFF09904EAF22
:1031D0007199380006F02FFE7198FEF726FF8046A1
:1031E00054AD7299280006F026FE7298FEF755FF3E
:1031F00081465AAE7399300006F01DFE7398FEF7B3
:103200001BFF069005964B46049303954346029395
:103210000197099B009348AB5A4651462000FFF79F
:1032200093FC5A9B052B00DD87E1549B052B00DDA9
:1032300085E14E9B052B00DD83E1489B052B00DDDE
:1032400081E1002067B0F0BCBB46B246A946A0466B
:10325000F0BD2B695B423E93AB693F93936841930A
:103260005368099340936B6843932B684293EB6ACE
:1032700046932B6B47936B6A0A93AB6A0B937199D6
:103280001EA806F0D8FD709924A806F0D4FD739905
:103290002AA806F0D0FD729930A806F0CCFD469A17
:1032A000479B9A426BDC249B042B6AD11E9B042B08
:1032B00069D12A9B042B68D1249B002B67DD052B49
:1032C00067DD259B1B682A9A002A64DD052A64DDD8
:1032D0002B9A12689A4262D165932A9A002A60DD7D
:1032E000052A60DD2B9A1268649293425DDC65AB1F
:1032F0001B689846249B032B59DD052B59DD259B24
:10330000DB681E9A032A56DD052A56DD1F9AD2680D
:103310009A4254D163931E9A032A52DD052A52DD44
:103320001F9AD268629293424FDC63AB1B68994646
:103330001E9B002B4BDD052B4BDD1F9B1B682A9A28
:10334000032A48DD052A48DD2B9AD2689A4246D1E5
:1033500061932A9A032A44DD052A44DD2B9AD26818
:103360006092934241DC61AB1F687298FEF75DFE8C
:10337000002847D03099052939DD319838E01CF014
:1033800065FC1CF063FC1CF061FC1CF05FFC1CF095
:103390005DFC259B97E71CF059FC2B9A9AE71CF0E3
:1033A00055FC1CF053FC2B9A9EE764ABA0E71CF085
:1033B0004DFC289BA5E71CF049FC229AA8E71CF0CD
:1033C00045FC1CF043FC229AACE762ABAEE71CF074
:1033D0003DFC1F9BB3E71CF039FC2E9AB6E71CF0AE
:1033E00035FC1CF033FC2E9ABAE760ABBCE731A881
:1033F000002303E09A001258564301339942F9DC46
:10340000B74278D143460E93249B012B75DD052BE3
:1034100075DD259B5B680F93249B022B71DD052BCB
:1034200071DD259B9B6810934B46119312971E9B51
:10343000012B6ADD052B6ADD1F9B5B6813931E9BC6
:10344000022B66DD052B66DD1F9B9B6814934B46A4
:1034500015930123169317931893199743461A93BC
:103460002A9B012B59DD052B59DD2B9B5B681B9398
:103470002A9B022B55DD052B55DD2B9B9B681C934E
:103480001D9700230C930D93696B002903DB636C7C
:10349000200098470C907098FEF7C7FD04007198C3
:1034A000FEF7C3FD05007298FEF7F7FD060073985E
:1034B000FEF7C2FD06901AAB0593049616AB039374
:1034C000029512AB019300940EAB0AAA3EA90CA878
:1034D0000AF039F8002828D1309B052B27DC2A9BDD
:1034E000052B26DC249B052B25DC1E9B052B00DCF5
:1034F000A7E61CF0ABFB1CF0A9FB1CF0A7FB269B6E
:1035000089E71CF0A3FB279B8DE71CF09FFB209B0A
:1035100094E71CF09BFB219B98E71CF097FB2C9BEE
:10352000A5E71CF093FB2D9BA9E71CF08FFB1CF07B
:103530008DFB1CF08BFB1CF089FB1CF087FB1CF047
:1035400085FB1CF083FB1CF081FB0000F0B5DE4620
:1035500057464E464546E0B5ABB00E0005921D00FD
:10356000359B0A21425E1B920C21425E1C920E2169
:10357000425E07921021425E0C920221425E1D9231
:103580000421425E1E924269039282690492C269DA
:103590001892026A1492426A1592816A2391C26A51
:1035A0002292914276DC3268042A75D12A68042A74
:1035B00074D1379A12680192042A71D13268002AB4
:1035C00070DD052A70DD7268126837990968002974
:1035D0006CDD05296CDD37994968096891426AD12B
:1035E000299237990968002967DD052967DD379930
:1035F0004968096828918A4264DC29AA12681F92E6
:103600003268032A60DD052A60DD7268D2682968A5
:1036100003295DDD05295DDD6968C96891425BD1DB
:1036200027922968032959DD052959DD6968C96888
:1036300026918A4256DC27AA126802922A68002A3A
:1036400052DD052A52DD6A68126837990968032934
:103650004EDD05294EDD37994968C96891424CD144
:10366000259237990968032949DD052949DD3799EC
:103670004968C96824918A4246DC25AA12681792D3
:10368000369A002A4DD0186805283FDD5B68002275
:10369000012141E01CF0DAFA1CF0D8FA1CF0D6FA4D
:1036A0001CF0D4FA1CF0D2FA72688EE71CF0CEFA45
:1036B0003799496892E71CF0C9FA1CF0C7FA3799A4
:1036C000496897E728AA99E71CF0C0FA32699EE793
:1036D0001CF0BCFA2969A1E71CF0B8FA1CF0B6FA94
:1036E0002969A5E726AAA7E71CF0B0FA6A68ACE743
:1036F0001CF0ACFA37990969B0E71CF0A7FA1CF086
:10370000A5FA37990969B5E724AAB7E70433BEE7F4
:103710009400E458614301329042F9DC179B8B42DC
:1037200038D13368012B37DD052B37DD73685B68D3
:103730000A933368022B34DD052B34DD73689B68F4
:1037400009932B68012B31DD052B31DD6B685B683C
:103750000B932B68022B2EDD052B2EDD6B689B68EF
:103760000693379B1B68012B2ADD052B2ADD379B2F
:103770005B685B681A93379B1B68022B26DD052B61
:1037800026DD379B5B689B681993002733003E005A
:103790001F00D8E11CF05AFA1CF058FAB3680A93DB
:1037A000C7E71CF053FAF3680993CAE71CF04EFA16
:1037B000AB680B93CDE71CF049FAEB680693D0E7B2
:1037C0001CF044FA379B9B681A93D4E71CF03EFA2E
:1037D000379BDB681993D8E71CF038FA1CF036FAEF
:1037E0001CF034FA1CF032FA1CF030FA1CF02EFAFD
:1037F0001CF02CFA1CF02AFA1CF028FA1CF026FA0D
:10380000B146464680466046019B9C460130069B79
:1038100098426EDA07994143089BC918F6D4099B70
:103820009942F3DA002EF1DB0A9B9E42EEDA002287
:103830000B006146019184464046B0464E4699468B
:10384000029B9A42DCDA3B68042BC5D1019900291E
:10385000C4DB7B689942C1DA4346002BC0DBBB68FE
:103860009845BDDA4C46002CBCDBFC68A246A1455D
:10387000B8DA002AB8DB3C69A242B5DA01994B43B9
:10388000434451464B434B446343D3180599CC5CA6
:103890002B68042BAAD10028AADB6B689842A7DA10
:1038A000002EA7DBAB689E42A4DA61460029A3DBA9
:1038B000E9688B468C459FDA002A9FDB29698A4696
:1038C0008A429BDA4343F31859464B4363445146BB
:1038D0004B43D3183499CB5C04998A4653440399DB
:1038E0008A4654445C43219B9A46544421940132B5
:1038F000A6E701239A46D1440B9B994507DA0C9E13
:103900004B465E430D9B9A46564400207FE7664631
:1039100044460195369B002B06D0A300369A9B584F
:10392000219A9446634421932198159A131E00DA34
:10393000B4E0159A002A00DCB2E0002292469840DA
:10394000149B834200D1AEE000239846C117149A1D
:10395000D31710F005FD02000B1E00DAADE0802148
:10396000C9050E91C9170F910E980F9912184B4166
:10397000D917490049081091002111911098119907
:1039800012184B4111005B00CA0F1343994643467E
:10399000002B00D093E05346002B00DA92E01F2B5F
:1039A00000DD96E0012098400138FEF754FB804688
:1039B0000020FEF750FB16900120FEF74CFB8346DB
:1039C00041464846FEF748FB050001214046FEF708
:1039D00045FB804616994846FEF74DFB5946FEF7D3
:1039E0003BFB01004046FEF73BFB80465146484604
:1039F000FEF734FB814641462800FEF745FB594659
:103A0000FEF72AFB01004846FEF72AFB2190189B8F
:103A10009C4660442190239B984261DB21AB1B684C
:103A20002193229A93425DDC21AB1A682192379B45
:103A30001B681693042B57D1002E57DB379B5B680E
:103A400016939E4252DA1299002951DB379B9B68EC
:103A500099424DDA139900294CDB3798C0688142AE
:103A600048DA002C48DB379909698C4244DA734301
:103A7000129DAC46634443431398844663444B43CE
:103A8000E3183899CA540134179B9C4236DA002354
:103A900021939946B446A046019D2DE7002348E7AF
:103AA000524292464BE780231B06984202D00023E5
:103AB00098464BE70123984648E7294951E7294BA7
:103AC000994668E7B321284B284A490028480DF059
:103AD00017FF6821274B254AFF3125480DF010FFBD
:103AE00023AB9CE722ABA0E71CF0B0F81CF0AEF8CB
:103AF0001CF0ACF81CF0AAF81CF0A8F8B346019D25
:103B0000139B01331393139A19998A4209DA1B9B69
:103B100053431D9A9B1A089300235E461C0001958F
:103B2000B2E75E46129B01331293129A1A998A42A7
:103B300008DA1C9B53431E9A9B1A0D930023139380
:103B4000B346E0E701361F9B9E4202DA0023129340
:103B5000EBE72BB0F0BCBB46B246A946A046F0BD91
:103B6000010000C0FFFFFF7F5CC206106CC20610A0
:103B7000C8C20610FCC20610F0B5DE4657464E46D7
:103B80004546E0B5B5B019694D42596948429E694C
:103B90001178012902D0022900D0002108AC21703F
:103BA000196861805968A180516861819168A1811B
:103BB0001169E181526922820D950E900F96DA69A2
:103BC00010921A6A52421192DA6A12921B6B139384
:103BD0003E9916A806F02FF93E98FEF731FA814675
:103BE0003F991CA806F027F93F98FEF729FA82466C
:103BF00022AD4099280006F01EF94098FEF74DFAD4
:103C0000834628AE4399300006F015F94398FEF735
:103C10001EFA80462EAF4199380006F00CF9419803
:103C2000FEF715FA00230793069005974346049381
:103C300003965B4602930195534600931CAB4A469C
:103C400016A92000FFF782FC2E9B052B13DC289B76
:103C5000052B12DC229B052B11DC1C9B052B10DC99
:103C6000169B052B0FDC002035B0F0BCBB46B246DE
:103C7000A946A046F0BD1BF0E9FF1BF0E7FF1BF0D3
:103C8000E5FF1BF0E3FF1BF0E1FF0000F0B5CE46BF
:103C9000474680B587B004000D00CB6899460028E0
:103CA00039D0002939D00B685968436D9847060010
:103CB000002C34D0002D34D02B6899682000636D1F
:103CC000984707002B681B68032B2CD000239846CD
:103CD000002C37D0002D37D06B6859682000636DF9
:103CE0009847AB68002B31D0327A017A8A422FD0C4
:103CF0006569D32303910292374A0192374A0092B1
:103D00005B00374A37492000A847012007B0C0BCF4
:103D1000B946B046F0BD1BF099FF1BF097FF1BF0B2
:103D200095FF1BF093FF002C08D0002D08D02B68C6
:103D3000D9682000636D98478046C9E71BF086FF6D
:103D40001BF084FF1BF082FF1BF080FF1BF07EFF47
:103D5000397A8A4205D063692349200098470120B7
:103D6000D4E7032A2AD0092A1BD0012A0AD0656980
:103D70001000FCF7BBFF0200337A1C492000A84763
:103D80000120C3E70590002204920392424602926A
:103D9000019700964A4629002000FEF753FE0020B6
:103DA000B4E70022049203904246029201970096E3
:103DB0004A4629002000FFF7D7F9A7E7059000221F
:103DC0000492039242460292019700964A462900C5
:103DD0002000FFF7D1FE99E70CC306101CC30610A4
:103DE000ECC1061080C0061028C3061090C3061050
:103DF00010B5836B002B02D03821984710BD1BF003
:103E000025FF0000F0B5DE4657464E464546E0B574
:103E100091B005000C0016000B931DAB1B78984663
:103E20000B681B68032B0AD0022B08D04469614B36
:103E300000934923604A6149A047012011E063686B
:103E40001B68012B14D06C690122039202935C4B16
:103E500001935C4B00934A23574A5B492800A047D3
:103E6000012011B0F0BCBB46B246A946A046F0BD49
:103E700001235B421E9A5363B3689B4673689A465C
:103E80003778012F34D0022F3BD000239946012FE1
:103E900041D0022F48D00023013B5A4653431C9A7D
:103EA000944663441A9A9B1A48D401211940DA0FA8
:103EB000D3185B100D930F91484601385346584371
:103EC0001B9B9C4660440B9BC71A39D40121394087
:103ED000FB0FDF197F100CAA0C970E911E9B83CA53
:103EE00083C312681A604346012B2BD10020B8E728
:103EF0000B9B53441800013851460FF037FA8146A6
:103F0000C5E70B9B534418001B9BC01A51460FF08A
:103F10002DFA8146BBE71A9B5B44180001385946CD
:103F20000FF024FA0300B7E71A9B5B4418001C9BB0
:103F3000C01A59460FF01AFA0300ADE70023B4E7A0
:103F40000027C3E7002221002800FDF737FE804646
:103F5000012221002800FDF731FE07000222210086
:103F60002800FDF767FE8146002221002800FDF7AA
:103F700043FE7B691B6910361E9A926A0B92089366
:103F800007921E9B5B6A0B9306931E9B303305932F
:103F90001E9B2C3304931E9B203303931E9C1C34C6
:103FA0000294019600904B463A0041462800FDF7E6
:103FB00007FF56E724C20610CCC3061000B7061050
:103FC000F4C6061048C2061080C00610F0B5DE46E2
:103FD00057464E464546E0B5BBB004000D008F681D
:103FE000002F56D0CB689A46002B54D00022FDF704
:103FF000E5FD0600012229002000FDF7DFFD8046D7
:10400000002229002000FDF7F7FD0A90337F9B4630
:104010007369DA6806929B68079343465B69DA68BE
:1040200008929A6809925A46092A36D01B699B0061
:10403000994619002000A36B9847786249462000F2
:10404000A36B9847B86204975B460393099B02935E
:10405000089B0193079B0093069B52462900200072
:10406000FFF7D0FE814600280BD1F3683B61434641
:10407000DB687B610A9BDB680B93BB61337F092B99
:1040800065D048463BB0F0BCBB46B246A946A04608
:10409000F0BD1BF0DBFD1BF0D9FD424612789146C6
:1040A000012A0FD06569012303930292C34B019348
:1040B000C34B00938023C34AC3492000A847012370
:1040C0009946DEE742465268002A14D0116800295A
:1040D0001AD05068002820D00A68012A26D0196911
:1040E0008A4223D06569B94B00938A23B54AB849FF
:1040F0002000A847C5E76569B64B00938723B14AFE
:10410000B3492000A847BCE76569B34B00938823F7
:10411000AC4AAF492000A847B3E76569AF4B0093AD
:104120008923A84AAA492000A847AAE701688A4229
:1041300000D17BE7656903910292A94B0193A94BDA
:1041400000938E239F4AA0492000A84799E7002E9C
:1041500000D1D3E0716904C9002319931992052A8B
:1041600000DDCEE0199B052B00DCCCE01A98920014
:1041700010F0DCFA0A9B002B00D1C6E00A9B5969BB
:1041800004C900231F931F92052A00DDBFE01F9B77
:10419000052B00DCBDE02098920010F0C7FA4346E2
:1041A000002B00D1B7E0596904C90023259325925B
:1041B000052A00DDB1E0259B052B00DCAFE0269849
:1041C000920010F0B3FA199B042B00D0A9E0259BB4
:1041D000042B00D0A7E01F9B042B00D0A5E0199B67
:1041E000002B00DCA3E0052B00DCA2E01A9B1B687F
:1041F0001F9A002A00DC9EE0052A00DC9DE0209A40
:1042000012689A4200D09AE039931F9A002A00DC83
:1042100097E0052A00DC96E0209A126838929342D3
:1042200000DD92E039AB1B681F9A032A00DC8EE0A8
:10423000052A00DC8DE0209AD2682599032900DC4C
:1042400089E0052900DC88E02699C968914200D000
:1042500085E037922599032900DC82E0052900DCFE
:1042600081E02699C96836918A427EDC37AA1268B5
:10427000012B7CD10D9307990E9106990F911999F5
:10428000032976DD052976DD1A99C9681091012187
:1042900011910999129108991391149215931F9BEA
:1042A000012B6ADD052B6ADD209B5B6816931F9B43
:1042B000022B66DD052B66DD209B9B681793189209
:1042C0007B6831933B68309315AB11AA0DA92BA8DD
:1042D0000AF003FC011E5EDD236C3A00343220003C
:1042E000984700285AD0259B052B4EDC1F9B052B99
:1042F0004DDC199B052B4CDC8146C2E6002319934B
:1043000038E71BF0A3FC1AA831E71F9347E71BF01F
:104310009DFC20A840E7259355E71BF097FC26A8B5
:104320004EE71BF093FC1BF091FC1BF08FFC1BF085
:104330008DFC1A9B5CE71BF089FC209A61E71BF05F
:1043400085FC1BF083FC209A68E738AB6BE71BF019
:104350007DFC239A71E71BF079FC299976E71BF025
:1043600075FC1BF073FC29997DE736AA7FE71BF0EB
:104370006DFC1BF06BFC1D9988E71BF067FC219B13
:1043800094E71BF063FC229B98E71BF05FFC1BF09B
:104390005DFC1BF05BFC01235B427B63259B052BD3
:1043A00008DC1F9B052B07DC199B052B00DC68E64E
:1043B0001BF04CFC1BF04AFC1BF048FC9CC0061098
:1043C000D4C00610CCC3061080C0061030C406103E
:1043D00000B70610F0C0061004C1061010C4061085
:1043E000B4C4061088C10610F0B5DE4657464E46E6
:1043F0004546E0B5A3B088460A929A462D9B0A210D
:10440000425E11920C21425E12920E21425E934650
:104410001021425E00920221425E13920421425E0C
:1044200014921221425E10920F92026B1592426B0F
:104430000E9242461268042A00D0B9E05246126831
:10444000042A00D0B6E02F9A12680192042A00D004
:10445000B2E042461268002A00DCAFE0052A00DC28
:10446000AEE04246526812682F990968002900DCC4
:10447000A9E0052900DCA8E02F9949680968914264
:1044800000D0A5E021922F990968002900DCA1E065
:10449000052900DCA0E02F994968096820918A422B
:1044A00000DD9CE021AA1268199252461268032A84
:1044B00000DC96E0052A00DC95E052465268D2689E
:1044C0002F990968032900DC90E0052900DC8FE0C2
:1044D0002F994968C968914200D08CE01F922F99AA
:1044E0000968032900DC88E0052900DC87E02F99B2
:1044F0004968C9681E918A4200DD83E01FAA1568D9
:1045000042461268012A7FDD052A7FDD4246526855
:104510005268029242461268022A7BDD052A7BDD40
:10452000424652689268019242461268032A77DD39
:10453000052A77DD42465268D268169252461268C2
:10454000012A73DD052A73DD5246526852680792CC
:1045500052461268022A6FDD052A6FDD5246526804
:10456000926891462F9A1268012A6BDD052A6BDD4D
:104570002F9A5268526818922F9A1268022A67DDA1
:10458000052A67DD2F9A526892681792169A109939
:104590004A43AA4262D11868052861DD5B6800229F
:1045A000012190425EDD9400E45861430132F8E756
:1045B0001BF04CFB1BF04AFB1BF048FB1BF046FBBF
:1045C0004246526850E71BF041FB2F99496856E775
:1045D0001BF03CFB1BF03AFB2F9949685EE720AAD1
:1045E00061E71BF033FB5246126969E71BF02EFBB3
:1045F0002F9909696FE71BF029FB1BF027FB2F9907
:10460000096977E71EAA7AE71BF020FB4246926809
:1046100002927FE71BF01AFB4246D268019283E7C1
:104620001BF014FB42461269169287E71BF00EFB43
:104630005246926807928BE71BF008FB5246D268FD
:1046400091468FE71BF002FB2F9A9268189293E72E
:104650001BF0FCFA2F9AD268179297E71BF0F6FA34
:1046600004339CE78D4206D1002305935346CA4686
:10467000D9469B462EE11BF0E9FA1BF0E7FA1BF046
:10468000E5FA1BF0E3FA1BF0E1FA1BF0DFFA1BF08E
:10469000DDFA1BF0DBFA1BF0D9FA1BF0D7FA1BF09E
:1046A000D5FA0134BC426DDA009A72434244534653
:1046B00063435B19F5D401998B42F2DA002AF0DBEF
:1046C00002998A42EDDA494609680429D5D105994B
:1046D0000029D4DB484640688142D0DA002AD0DB8A
:1046E000494689688C468A42CBDA002BCBDB4946A7
:1046F000C96809918B42C6DA08980028C5DB49468B
:1047000009690391010003988142BEDA6146059868
:1047100041438C46624409994A439B18039A534388
:10472000089A944663449B000A9A98585B461B6813
:10473000042BACD15B465B68002BAADD002EAADB04
:104740005B469B689E42A6DA002CA6DB5B46DB68D4
:104750009C42A2DA04990029A1DB5A4612699142CF
:104760009DDA7343E3185343049A944663449B00D1
:104770002C9A99580FF020FE011C06980FF012FE9B
:1047800006908EE70136079B9E4201DA002489E7F6
:104790002E9B002B67D0049B9B002E9AD158069825
:1047A0000FF000FE2F9B1B680393042B5DD1059B2C
:1047B000002B5CDB2F9A52680392934257DA0B9BD3
:1047C000002B56DB2F9A9468A34252DA0C9B002BE5
:1047D00051DB2F9AD1688B424DDA049B002B4CDBC6
:1047E0002F9A1269934248DA059B5C430B9B9C46C7
:1047F00064444C430C9B9C4664445443049B9C4639
:104800006444A400309B9C4664441B9015991C9101
:104810000E9B1D930FF008FE002830D11BAD2968B8
:104820000E980FF001FE00282BD12B6823600D9B02
:1048300001330D930D9A0F998A4224DA109B08993F
:104840004B43944663440493119D0C9B5D43139B1F
:10485000ED1A129B0B9A5343149A9B1A9846002602
:10486000002306938FE7002199E71BF0EFF91BF077
:10487000EDF91BF0EBF91BF0E9F91BF0E7F91CADC2
:10488000CDE71DADD1E7089B01330893089B169A2D
:10489000934202DA00230D93CCE70C9B01330C9377
:1048A0000C9B179A934202DA00230893EEE7C8465E
:1048B000D146BA460B9B01330B930B9B189A93423C
:1048C00005DA00230C935746CA46C146E8E7059B24
:1048D00001330593059B199A934202DA00230B9347
:1048E000EBE723B0F0BCBB46B246A946A046F0BDFC
:1048F00030B5044B020032CB32C232CB32C212CBC3
:1049000012C230BDDCC40610F0B5CE46474680B5B5
:10491000B1B015001E00107C16AA17A9FDF7C4FB44
:1049200006AC01232370336863807368A3806B68CF
:104930006381AB68A3816B69E381AB692382EB6818
:104940006382179B1293169B1393389918A805F04E
:1049500072FA3898FDF75EFB804639991EA805F07B
:104960006AFA3998FDF756FB814624AD3A9928003A
:1049700005F061FA3A98FDF74DFB07002AAE3B9926
:10498000300005F058FA3B98FDF74BFB0490039676
:10499000029701954B4600931EAB424618A9200092
:1049A000FFF722FD2A9B052B0DDC249B052B0CDC3D
:1049B0001E9B052B0BDC189B052B0ADC31B0C0BC01
:1049C000B946B046F0BD1BF041F91BF03FF91BF0B2
:1049D0003DF91BF03BF90000F0B5DE4657464E4668
:1049E0004546E0B5A9B019911A929B46339B9A4669
:1049F000359B0A21425E14920C21425E15920E22D2
:104A0000875E1022855E0221425E16920421425E7C
:104A100017921221425E1392129242690A92C2695F
:104A20001892816A2391C26A22925846006804282B
:104A300000D0BEE050460068042800D0BBE03798A4
:104A400000680190042800D0B7E0914200DDB6E094
:104A50005A461268002A00DCB3E0052A00DCB2E006
:104A60005A465268126837990968002900DCADE09F
:104A7000052900DCACE0379949680968914200D00B
:104A8000A9E0279237990968002900DCA5E00529EB
:104A900000DCA4E037994968096826918A4200DD64
:104AA000A0E027AA12681F9252461268032A00DC6F
:104AB0009AE0052A00DC99E052465268D26837999C
:104AC0000968032900DC94E0052900DC93E03799AC
:104AD0004968C968914200D090E0259237990968E9
:104AE000032900DC8CE0052900DC8BE0379949685C
:104AF000C96824918A4200DD87E025AA126894469D
:104B00005A461268012A00DC81E0052A00DC80E0B8
:104B10005A465268526804925A461268022A7CDD4C
:104B2000052A7CDD5A465268926890465A461268B9
:104B3000032A78DD052A78DD5A465268D2681B922E
:104B400052461268012A74DD052A74DD5246526805
:104B50005268079252461268022A70DD052A70DDFB
:104B6000524652689668379A1268012A6CDD052A07
:104B70006CDD379A526852681D92379A1268022A81
:104B800068DD052A68DD379A526892681C921B9A84
:104B900013994A43624563D11868052862DD5B6852
:104BA0000022012190425FDD9400E458614301320C
:104BB000F8E71BF04BF81BF049F81BF047F81BF027
:104BC00045F81BF043F85A4652684CE71BF03EF894
:104BD0003799496852E71BF039F81BF037F83799D5
:104BE00049685AE726AA5DE71BF030F85246126979
:104BF00065E71BF02BF8379909696BE71BF026F87E
:104C00001BF024F83799096973E724AA76E71BF0AB
:104C10001DF85A46926804927EE71BF017F85A4630
:104C2000D268904682E71BF011F85A4612691B922F
:104C300086E71BF00BF85246926807928AE71BF052
:104C400005F85246D6688EE71BF000F8379A92684E
:104C50001D9292E71AF0FAFF379AD2681C9296E7F3
:104C60001AF0F4FF04339BE78C4513D1002306931D
:104C70002C003D00C146D846D346B246069B1F9A3B
:104C8000934200DBF2E100230B935B463393C34670
:104C90009846D7E11AF0DAFF1AF0D8FF1AF0D6FFDB
:104CA0001AF0D4FF1AF0D2FF1AF0D0FF1AF0CEFF9C
:104CB0001AF0CCFF1AF0CAFF1AF0C8FF1AF0C6FFAC
:104CC0000132AA426BDA390061434144019B5343EC
:104CD00002981B18F4D45345F2DA0029F0DB04984B
:104CE0008142EDDA584600680428D5D1069800289C
:104CF000D4DB5E467668B042D0DA0029D0DB584675
:104D0000806881468142CBDA002BCBDB5846C068F5
:104D100009908342C6DA089E002EC5DB584600691A
:104D2000059005988642BFDA4846069E7043814644
:104D30004944099841435B1805994B4308998946B2
:104D40004B443299C95663461B68042BAED1634667
:104D50005B68002BACDD002CACDB63469B689C429F
:104D6000A8DA002AA8DB6346DB689A42A4DA039833
:104D70000028A3DB66463669B0429FDA6343D31846
:104D80007343039881464B443498C3560A9881462E
:104D900049445943219B99464944219190E7019EFA
:104DA00002980134079B9C4203DA0022019602908C
:104DB00087E72C0035003E005B46D34667469A469F
:104DC000369B002B07D0039B9B00369A9B58219A59
:104DD0009446634421932198039B9B00199AD258CF
:104DE0001A99CB58191E00DAD4E0002B00DCD3E06E
:104DF000002398468840824200D1D0E000230193EE
:104E0000C117D3170FF0ACFA02000B1E00DAD0E086
:104E10008021C9050E91C9170F910E980F9912188C
:104E20004B41D91749004908109100211191109860
:104E3000119912184B4111005B00CA0F1343994698
:104E4000019B002B00D0B6E04346002B00DAB5E012
:104E50001F2B00DDB9E0012098400138FDF7FBF879
:104E600001900020FDF7F7F805900120FDF7F3F819
:104E7000029001994846FDF7EFF809900121019849
:104E8000FDF7ECF8019005994846FDF7F4F8029912
:104E9000FDF7E2F801000198FDF7E2F801904146C4
:104EA0004846FDF7DBF8804601990998FDF7ECF8D4
:104EB0000299FDF7D1F801004046FDF7D1F82190A5
:104EC000189B9C4660442190239B984200DA83E023
:104ED00021AB1B682193229A93427FDC21AB196896
:104EE0002191379B1B680193042B79D1069B002BE2
:104EF00078DB379A52680192934273DA0B9A002A50
:104F000072DB379B9B689A426EDA0C9A002A6DDB43
:104F10003798C0688446824268DA039A002A67DBC1
:104F200037980069824263DA069A53430B9A904697
:104F30004344624653430C9A944663444343039A62
:104F400094466344389AD1540D9B01330D930D9AC6
:104F500012998A424EDA139B08994B439446634454
:104F6000039314980C9B5843169BC01A159B0B9ADD
:104F70005343179A9B1A9846002321939C46534605
:104F8000DA46339737002E0025006446339A94465C
:104F90009B4607E7002128E75B4298462AE78023E3
:104FA0001B06984202D00023019329E701230193B5
:104FB00026E732492EE7324B994645E7B321314B7C
:104FC000314A490031480CF09BFC6821304B2E4A95
:104FD000FF312E480CF094FC23AB7AE722AB7EE73E
:104FE0001AF034FE1AF032FE1AF030FE1AF02EFEDD
:104FF0001AF02CFED346B246B846089B01330893FC
:10500000089B1B9A934207DA00230D935646DA4613
:105010001E9B9B4647469AE7A1462C000C9B0133FA
:105020000C930C9B1C9A934204DA002308932500EE
:105030004C46E5E725005446CA461E9B99460B9B05
:1050400001330B930B9B1D9A934207DA00230C93B9
:105050004B461E93D146A2462C00E2E743463393CB
:10506000D8469B46069B0133069307E629B0F0BC61
:10507000BB46B246A946A046F0BDC046010000C0EE
:10508000FFFFFF7F5CC206106CC20610C8C206108C
:10509000FCC20610F0B5DE4657464E464546E0B522
:1050A000E9B004001D009369499356694896012BA5
:1050B00001D1012E68D031AC012323702B686380AD
:1050C0006B68A380536863819368A381E6819369C9
:1050D0002382D36863822B695B4263610023A361EF
:1050E000AB69E36180235B42A362FF33E3626B6AD7
:1050F0009A46AB6A9B4672994CA804F09CFE729843
:10510000FCF793FF099052AF7399380004F093FEB7
:105110007398FCF78AFF804658AD7499280004F014
:105120008AFE7498FCF7B9FF81465EAE759930002F
:1051300004F081FE7598FCF77FFF069005964B46BC
:1051400004930395434602930197099B00934CAB4C
:105150005A4651462000FFF73FFC5E9B052B00DDC1
:1051600063E1589B052B00DD61E1529B052B00DDBF
:105170005FE14C9B052B00DD5DE169B0F0BCBB46F7
:10518000B246A946A046F0BD2B695B424193AB698C
:10519000429393684593536844936B6847932B6895
:1051A000469380235B424A93FF334B93D368099322
:1051B00043936B6A0B93AB6A0C9373991FA804F02B
:1051C0003AFE729925A804F036FE75992BA804F0D2
:1051D00032FE749931A804F02EFE4A9A4B9B9A42F3
:1051E00044DC259B002B43DD052B43DD269B1B6800
:1051F0002B9A002A40DD052A40DD2C9A12689A423B
:105200003ED167932B9A002A3CDD052A3CDD2C9A7F
:1052100012686692934239DC67AB1B6898461F9B05
:10522000032B35DD052B35DD209BDB682B9A032A0C
:1052300032DD052A32DD2C9AD2689A4230D165934C
:105240002B9A032A2EDD052A2EDD2C9AD268649231
:1052500093422BDC65AB1F687498FCF7E6FE0028D0
:1052600032D03199052923DD329822E01AF0EEFC84
:105270001AF0ECFC269BBBE71AF0E8FC2C9ABEE780
:105280001AF0E4FC1AF0E2FC2C9AC2E766ABC4E721
:105290001AF0DCFC239BC9E71AF0D8FC2F9ACCE764
:1052A0001AF0D4FC1AF0D2FC2F9AD0E764ABD2E704
:1052B00032A8002303E09A00125856430133994262
:1052C000F9DCB74200D086E043460F93259B012BC3
:1052D00000DC82E0052B00DC81E0269B5B681093FC
:1052E000259B022B7DDD052B7DDD269B9B68119385
:1052F000259B032B79DD052B79DD269BDB6812933B
:105300001F9B002B75DD052B75DD209B1B68139300
:105310001F9B012B71DD052B71DD209B5B681493B6
:105320001F9B022B6DDD052B6DDD209B9B6815936C
:10533000169701231793189319931A9743461B93B3
:105340002B9B012B61DD052B61DD2C9B5B681C9386
:105350002B9B022B5DDD052B5DDD2C9B9B681D933C
:105360001E9700230D930E93696B002903DB636C7A
:10537000200098470D907298FCF757FE0400739830
:10538000FCF753FE05007498FCF787FE060075983D
:10539000FCF752FE06901BAB0593049617AB0393E4
:1053A000029513AB019300940FAB0BAA41A90DA872
:1053B00009F053FB002830D1319B052B2FDC2B9BB0
:1053C000052B2EDC259B052B2DDC1F9B052B00DCE4
:1053D000D3E61AF03BFC1AF039FC1AF037FC279B95
:1053E0007DE71AF033FC289B81E71AF02FFC299BFC
:1053F00085E71AF02BFC209B89E71AF027FC219BFC
:105400008DE71AF023FC229B91E71AF01FFC2D9BDD
:105410009DE71AF01BFC2E9BA1E71AF017FC1AF06F
:1054200015FC1AF013FC1AF011FC1AF00FFC1AF01C
:105430000DFC1AF00BFC1AF009FC0000F0B5DE467A
:1054400057464E464546E0B5ABB08B460C929A4661
:10545000359B0A21425E18920C21425E19920E225F
:10546000875E1022855E0221425E1A920421425E0E
:105470001B921221425E17921692816A2591C26A8E
:10548000249244690A9484690B94C4691C94046A44
:105490001494406A159058460068042800D0BEE075
:1054A00050460068042800D0BBE03798006801909F
:1054B000042800D0B7E0914200DDB6E05A461268F9
:1054C000002A00DCB3E0052A00DCB2E05A4652684C
:1054D000126837990968002900DCADE0052900DC75
:1054E000ACE0379949680968914200D0A9E0299257
:1054F00037990968002900DCA5E0052900DCA4E053
:1055000037994968096828918A4200DDA0E029AAF4
:105510001268219252461268032A00DC9AE0052A9A
:1055200000DC99E052465268D2683799096803292D
:1055300000DC94E0052900DC93E037994968C968EC
:10554000914200D090E0279237990968032900DC46
:105550008CE0052900DC8BE037994968C968269101
:105560008A4200DD87E027AA126894465A461268EC
:10557000012A00DC81E0052A00DC80E05A465268FE
:10558000526803925A461268022A7CDD052A7CDDA5
:105590005A465268926890465A461268032A78DD45
:1055A000052A78DD5A465268D2681D925246126822
:1055B000012A74DD052A74DD52465268526807924A
:1055C00052461268022A70DD052A70DD5246526882
:1055D0009668379A1268012A6CDD052A6CDD379AC5
:1055E000526852681F92379A1268022A68DD052AAB
:1055F00068DD379A526892681E921D9A17994A433D
:10560000624563D11868052862DD5B6800220121CC
:1056100090425FDD9400E45861430132F8E71AF0EC
:1056200015FB1AF013FB1AF011FB1AF00FFB1AF01E
:105630000DFB5A4652684CE71AF008FB3799496847
:1056400052E71AF003FB1AF001FB379949685AE751
:1056500028AA5DE71AF0FAFA5246126965E71AF0CD
:10566000F5FA379909696BE71AF0F0FA1AF0EEFAD1
:105670003799096973E726AA76E71AF0E7FA5A46D6
:10568000926803927EE71AF0E1FA5A46D268904691
:1056900082E71AF0DBFA5A4612691D9286E71AF081
:1056A000D5FA5246926807928AE71AF0CFFA524624
:1056B000D6688EE71AF0CAFA379A92681F9292E774
:1056C0001AF0C4FA379AD2681E9296E71AF0BEFA18
:1056D00004339BE78C450ED1002306932C003D003C
:1056E000C146D046B246069B219A934200DBEAE1CE
:1056F00000230D93D7E11AF0A9FA1AF0A7FA1AF0CD
:10570000A5FA1AF0A3FA1AF0A1FA1AF09FFA1AF001
:105710009DFA1AF09BFA1AF099FA1AF097FA1AF011
:1057200095FA0132AA426EDA390061434144019B85
:10573000534302981B18F4D45345F2DA0029F0DBE6
:1057400003988142EDDA584600680428D5D10698BE
:105750000028D4DB5E467668B042D0DA0029D0DB80
:105760005846806881468142CBDA002BCBDB584615
:10577000C06809908342C6DA089E002EC5DB5846F1
:105780000069049004988642BFDA4846069E70433A
:1057900081464944099841435B1804994B43089951
:1057A00089464B440C99C95C63461B68042BAED1F7
:1057B00063465B68002BACDD002CACDB63469B686A
:1057C0009C42A8DA002AA8DB6346DB689A42A4DA86
:1057D00005980028A3DB66463669B0429FDA63432A
:1057E000D3187343059881464B443498C35C0B9897
:1057F00081464B440A98814649445943239B994624
:10580000494423918DE7019E02980134079B9C42F5
:1058100003DA00220196029084E72C0035003E0056
:105820005B46D34667469A46369B002B07D0059BBE
:105830009B00369A9B58239A94466344239323985B
:10584000159A131E00DAD6E0159A002A00DCD4E07F
:10585000002290469840149B834200D1D0E0002360
:105860000193C117149AD3170EF07AFD02000B1E94
:1058700000DACFE08021C9051091C9171191109865
:10588000119912184B41D91749004908129100216A
:1058900013911298139912184B4111005B00CA0F13
:1058A00013439946019B002B00D0B5E04346002BE3
:1058B00000DAB4E01F2B00DDB8E001209840013889
:1058C000FCF7C9FB01900020FCF7C5FB0490012008
:1058D000FCF7C1FB029001994846FCF7BDFB09901B
:1058E00001210198FCF7BAFB019004994846FCF7A6
:1058F000C2FB0299FCF7B0FB01000198FCF7B0FB7A
:10590000019041464846FCF7A9FB80460199099859
:10591000FCF7BAFB0299FCF79FFB01004046FCF73D
:105920009FFB23901C9B9C4660442390259B9842A0
:1059300000DA82E023AB1B682393249A93427EDC37
:1059400023AB19682391379B1B680193042B78D1F3
:10595000069B002B77DB379A52680192934272DAEA
:105960000D9A002A71DB379B9B689A426DDA0E9A7A
:10597000002A6CDB3798C0688446824267DA059A51
:10598000002A66DB37980069824262DA069A53433E
:105990000D9A90464344624653430E9A944663449C
:1059A0004343059A94466344389AD1540F9B01337C
:1059B0000F930F9A16998A424DDA179B08994B4319
:1059C00094466344059318980E9B58431A9BC01A3B
:1059D000199B0D9A53431B9A9B1A984600232393B5
:1059E0009C465346DA463A0037002E0025006446AE
:1059F00094469B460AE7002326E75242904629E751
:105A000080231B06984202D00023019329E701233B
:105A1000019326E72F492FE72F4B994646E7B321FD
:105A20002E4B2F4A49002F480BF06AFF68212E4B5E
:105A30002B4AFF312B480BF063FF25AB7BE724ABF0
:105A40007FE71AF003F91AF001F91AF0FFF81AF0DB
:105A5000FDF81AF0FBF8D346B246B846089B01336E
:105A60000893089B1D9A934207DA00230F9356462A
:105A7000DA46209B9B4647469BE7A1462C000E9B9F
:105A800001330E930E9B1E9A934204DA002308936F
:105A900025004C46E5E725005446CA46209B99461A
:105AA0000D9B01330D930D9B1F9A934207DA002340
:105AB0000E934B462093D146A2462C00E2E7069B6C
:105AC000013306930FE62BB0F0BCBB46B246A946A5
:105AD000A046F0BD010000C0FFFFFF7F5CC20610C2
